{
  "contractName": "iam",
  "abi": [
    {
      "constant": false,
      "inputs": [
        {
          "internalType": "string",
          "name": "_username",
          "type": "string"
        },
        {
          "internalType": "string",
          "name": "_password",
          "type": "string"
        }
      ],
      "name": "registerUsers",
      "outputs": [],
      "payable": false,
      "stateMutability": "nonpayable",
      "type": "function"
    },
    {
      "constant": true,
      "inputs": [],
      "name": "getUsers",
      "outputs": [
        {
          "internalType": "string",
          "name": "",
          "type": "string"
        },
        {
          "internalType": "string",
          "name": "",
          "type": "string"
        }
      ],
      "payable": false,
      "stateMutability": "view",
      "type": "function"
    }
  ],
  "bytecode": "0x608060405234801561001057600080fd5b506105ca806100206000396000f3fe608060405234801561001057600080fd5b50600436106100355760003560e01c8062ce8e3e1461003a57806356925a8314610129575b600080fd5b61004261027b565b604051808060200180602001838103835285818151815260200191508051906020019080838360005b8381101561008657808201518184015260208101905061006b565b50505050905090810190601f1680156100b35780820380516001836020036101000a031916815260200191505b50838103825284818151815260200191508051906020019080838360005b838110156100ec5780820151818401526020810190506100d1565b50505050905090810190601f1680156101195780820380516001836020036101000a031916815260200191505b5094505050505060405180910390f35b6102796004803603604081101561013f57600080fd5b810190808035906020019064010000000081111561015c57600080fd5b82018360208201111561016e57600080fd5b8035906020019184600183028401116401000000008311171561019057600080fd5b91908080601f016020809104026020016040519081016040528093929190818152602001838380828437600081840152601f19601f820116905080830192505050505050509192919290803590602001906401000000008111156101f357600080fd5b82018360208201111561020557600080fd5b8035906020019184600183028401116401000000008311171561022757600080fd5b91908080601f016020809104026020016040519081016040528093929190818152602001838380828437600081840152601f19601f820116905080830192505050505050509192919290505050610440565b005b6060806000803373ffffffffffffffffffffffffffffffffffffffff1673ffffffffffffffffffffffffffffffffffffffff1681526020019081526020016000206000016000803373ffffffffffffffffffffffffffffffffffffffff1673ffffffffffffffffffffffffffffffffffffffff168152602001908152602001600020600101818054600181600116156101000203166002900480601f0160208091040260200160405190810160405280929190818152602001828054600181600116156101000203166002900480156103955780601f1061036a57610100808354040283529160200191610395565b820191906000526020600020905b81548152906001019060200180831161037857829003601f168201915b50505050509150808054600181600116156101000203166002900480601f0160208091040260200160405190810160405280929190818152602001828054600181600116156101000203166002900480156104315780601f1061040657610100808354040283529160200191610431565b820191906000526020600020905b81548152906001019060200180831161041457829003601f168201915b50505050509050915091509091565b816000803373ffffffffffffffffffffffffffffffffffffffff1673ffffffffffffffffffffffffffffffffffffffff16815260200190815260200160002060000190805190602001906104959291906104f0565b50806000803373ffffffffffffffffffffffffffffffffffffffff1673ffffffffffffffffffffffffffffffffffffffff16815260200190815260200160002060010190805190602001906104eb9291906104f0565b505050565b828054600181600116156101000203166002900490600052602060002090601f016020900481019282601f1061053157805160ff191683800117855561055f565b8280016001018555821561055f579182015b8281111561055e578251825591602001919060010190610543565b5b50905061056c9190610570565b5090565b61059291905b8082111561058e576000816000905550600101610576565b5090565b9056fea265627a7a723158202839a0103c8a12d44e8c34f243bcf90f6f378996ff1e2df677800ae0a91a6e5264736f6c63430005100032",
  "source": "// SPDX-License-Identifier: MIT\npragma solidity >=0.4.22 <0.9.0;\n\ncontract iam {\n        \n    struct Users{\n        string username;\n        string password;\n    }\n    \n    mapping (address => Users) users;\n    \n    function registerUsers(string memory _username,string memory _password) public {\n        \n        users[msg.sender].username = _username;\n        users[msg.sender].password = _password;\n    }\n\n    function getUsers() public view returns (string memory, string memory) {\n        return (users[msg.sender].username, users[msg.sender].password);\n    }\n}\n",
  "sourcePath": "/Users/kritsanawipankhet/Documents/github/CE64-41/credential_store/iam/contracts/iam.sol",
  "compiler": {
    "name": "solc",
    "version": "0.5.16+commit.9c3226ce.Emscripten.clang"
  },
  "schemaVersion": "3.4.3",
  "updatedAt": "2021-09-16T19:24:45.377Z",
  "networkType": "ethereum",
  "devdoc": {
    "methods": {}
  },
  "userdoc": {
    "methods": {}
  }
}