{
	"data": {
		"bytecode": {
			"linkReferences": {},
			"object": "608060405234801561001057600080fd5b50610d73806100206000396000f3fe608060405234801561001057600080fd5b50600436106100365760003560e01c806365c06f701461003b57806383e6858f14610057575b600080fd5b6100556004803603810190610050919061080c565b610087565b005b610071600480360381019061006c91906107a0565b6101e4565b60405161007e9190610b8a565b60405180910390f35b6100908561061c565b6100cf576040517f08c379a00000000000000000000000000000000000000000000000000000000081526004016100c690610b4a565b60405180910390fd5b846000866040516100e09190610b1c565b90815260200160405180910390206000019080519060200190610104929190610666565b50836000866040516101169190610b1c565b9081526020016040518091039020600101908051906020019061013a929190610666565b508260008660405161014c9190610b1c565b90815260200160405180910390206002019080519060200190610170929190610666565b50816000866040516101829190610b1c565b908152602001604051809103902060030190805190602001906101a6929190610666565b50806000866040516101b89190610b1c565b908152602001604051809103902060040190805190602001906101dc929190610666565b505050505050565b6101ec6106ec565b826040516020016101fd9190610b1c565b604051602081830303815290604052805190602001206000846040516102239190610b1c565b90815260200160405180910390206000016040516020016102449190610b33565b604051602081830303815290604052805190602001201480156102d25750816040516020016102739190610b1c565b604051602081830303815290604052805190602001206000836040516102999190610b1c565b90815260200160405180910390206001016040516020016102ba9190610b33565b60405160208183030381529060405280519060200120145b610311576040517f08c379a000000000000000000000000000000000000000000000000000000000815260040161030890610b6a565b60405180910390fd5b6000836040516103219190610b1c565b90815260200160405180910390206040518060a001604052908160008201805461034a90610c9c565b80601f016020809104026020016040519081016040528092919081815260200182805461037690610c9c565b80156103c35780601f10610398576101008083540402835291602001916103c3565b820191906000526020600020905b8154815290600101906020018083116103a657829003601f168201915b505050505081526020016001820180546103dc90610c9c565b80601f016020809104026020016040519081016040528092919081815260200182805461040890610c9c565b80156104555780601f1061042a57610100808354040283529160200191610455565b820191906000526020600020905b81548152906001019060200180831161043857829003601f168201915b5050505050815260200160028201805461046e90610c9c565b80601f016020809104026020016040519081016040528092919081815260200182805461049a90610c9c565b80156104e75780601f106104bc576101008083540402835291602001916104e7565b820191906000526020600020905b8154815290600101906020018083116104ca57829003601f168201915b5050505050815260200160038201805461050090610c9c565b80601f016020809104026020016040519081016040528092919081815260200182805461052c90610c9c565b80156105795780601f1061054e57610100808354040283529160200191610579565b820191906000526020600020905b81548152906001019060200180831161055c57829003601f168201915b5050505050815260200160048201805461059290610c9c565b80601f01602080910402602001604051908101604052809291908181526020018280546105be90610c9c565b801561060b5780601f106105e05761010080835404028352916020019161060b565b820191906000526020600020905b8154815290600101906020018083116105ee57829003601f168201915b505050505081525050905092915050565b60008060008360405161062f9190610b1c565b9081526020016040518091039020600001805461064b90610c9c565b9050141561065c5760019050610661565b600090505b919050565b82805461067290610c9c565b90600052602060002090601f01602090048101928261069457600085556106db565b82601f106106ad57805160ff19168380011785556106db565b828001600101855582156106db579182015b828111156106da5782518255916020019190600101906106bf565b5b5090506106e8919061071b565b5090565b6040518060a0016040528060608152602001606081526020016060815260200160608152602001606081525090565b5b8082111561073457600081600090555060010161071c565b5090565b600061074b61074684610bdd565b610bac565b90508281526020810184848401111561076357600080fd5b61076e848285610c5a565b509392505050565b600082601f83011261078757600080fd5b8135610797848260208601610738565b91505092915050565b600080604083850312156107b357600080fd5b600083013567ffffffffffffffff8111156107cd57600080fd5b6107d985828601610776565b925050602083013567ffffffffffffffff8111156107f657600080fd5b61080285828601610776565b9150509250929050565b600080600080600060a0868803121561082457600080fd5b600086013567ffffffffffffffff81111561083e57600080fd5b61084a88828901610776565b955050602086013567ffffffffffffffff81111561086757600080fd5b61087388828901610776565b945050604086013567ffffffffffffffff81111561089057600080fd5b61089c88828901610776565b935050606086013567ffffffffffffffff8111156108b957600080fd5b6108c588828901610776565b925050608086013567ffffffffffffffff8111156108e257600080fd5b6108ee88828901610776565b9150509295509295909350565b600061090682610c22565b6109108185610c2d565b9350610920818560208601610c69565b61092981610d2c565b840191505092915050565b600061093f82610c22565b6109498185610c4f565b9350610959818560208601610c69565b80840191505092915050565b6000815461097281610c9c565b61097c8186610c4f565b9450600182166000811461099757600181146109a8576109db565b60ff198316865281860193506109db565b6109b185610c0d565b60005b838110156109d3578154818901526001820191506020810190506109b4565b838801955050505b50505092915050565b60006109f1601283610c3e565b91507f557365726e616d6520616c7265616479202100000000000000000000000000006000830152602082019050919050565b6000610a31602383610c3e565b91507f557365726e616d65206f722070617373776f726420697320696e636f7272656360008301527f74202100000000000000000000000000000000000000000000000000000000006020830152604082019050919050565b600060a0830160008301518482036000860152610aa782826108fb565b91505060208301518482036020860152610ac182826108fb565b91505060408301518482036040860152610adb82826108fb565b91505060608301518482036060860152610af582826108fb565b91505060808301518482036080860152610b0f82826108fb565b9150508091505092915050565b6000610b288284610934565b915081905092915050565b6000610b3f8284610965565b915081905092915050565b60006020820190508181036000830152610b63816109e4565b9050919050565b60006020820190508181036000830152610b8381610a24565b9050919050565b60006020820190508181036000830152610ba48184610a8a565b905092915050565b6000604051905081810181811067ffffffffffffffff82111715610bd357610bd2610cfd565b5b8060405250919050565b600067ffffffffffffffff821115610bf857610bf7610cfd565b5b601f19601f8301169050602081019050919050565b60008190508160005260206000209050919050565b600081519050919050565b600082825260208201905092915050565b600082825260208201905092915050565b600081905092915050565b82818337600083830152505050565b60005b83811015610c87578082015181840152602081019050610c6c565b83811115610c96576000848401525b50505050565b60006002820490506001821680610cb457607f821691505b60208210811415610cc857610cc7610cce565b5b50919050565b7f4e487b7100000000000000000000000000000000000000000000000000000000600052602260045260246000fd5b7f4e487b7100000000000000000000000000000000000000000000000000000000600052604160045260246000fd5b6000601f19601f830116905091905056fea264697066735822122094ffc8a200137751aa1e848e69406289be1a69a9cffed3ae2dd3fa8496cceb5d64736f6c63430008000033",
			"opcodes": "PUSH1 0x80 PUSH1 0x40 MSTORE CALLVALUE DUP1 ISZERO PUSH2 0x10 JUMPI PUSH1 0x0 DUP1 REVERT JUMPDEST POP PUSH2 0xD73 DUP1 PUSH2 0x20 PUSH1 0x0 CODECOPY PUSH1 0x0 RETURN INVALID PUSH1 0x80 PUSH1 0x40 MSTORE CALLVALUE DUP1 ISZERO PUSH2 0x10 JUMPI PUSH1 0x0 DUP1 REVERT JUMPDEST POP PUSH1 0x4 CALLDATASIZE LT PUSH2 0x36 JUMPI PUSH1 0x0 CALLDATALOAD PUSH1 0xE0 SHR DUP1 PUSH4 0x65C06F70 EQ PUSH2 0x3B JUMPI DUP1 PUSH4 0x83E6858F EQ PUSH2 0x57 JUMPI JUMPDEST PUSH1 0x0 DUP1 REVERT JUMPDEST PUSH2 0x55 PUSH1 0x4 DUP1 CALLDATASIZE SUB DUP2 ADD SWAP1 PUSH2 0x50 SWAP2 SWAP1 PUSH2 0x80C JUMP JUMPDEST PUSH2 0x87 JUMP JUMPDEST STOP JUMPDEST PUSH2 0x71 PUSH1 0x4 DUP1 CALLDATASIZE SUB DUP2 ADD SWAP1 PUSH2 0x6C SWAP2 SWAP1 PUSH2 0x7A0 JUMP JUMPDEST PUSH2 0x1E4 JUMP JUMPDEST PUSH1 0x40 MLOAD PUSH2 0x7E SWAP2 SWAP1 PUSH2 0xB8A JUMP JUMPDEST PUSH1 0x40 MLOAD DUP1 SWAP2 SUB SWAP1 RETURN JUMPDEST PUSH2 0x90 DUP6 PUSH2 0x61C JUMP JUMPDEST PUSH2 0xCF JUMPI PUSH1 0x40 MLOAD PUSH32 0x8C379A000000000000000000000000000000000000000000000000000000000 DUP2 MSTORE PUSH1 0x4 ADD PUSH2 0xC6 SWAP1 PUSH2 0xB4A JUMP JUMPDEST PUSH1 0x40 MLOAD DUP1 SWAP2 SUB SWAP1 REVERT JUMPDEST DUP5 PUSH1 0x0 DUP7 PUSH1 0x40 MLOAD PUSH2 0xE0 SWAP2 SWAP1 PUSH2 0xB1C JUMP JUMPDEST SWAP1 DUP2 MSTORE PUSH1 0x20 ADD PUSH1 0x40 MLOAD DUP1 SWAP2 SUB SWAP1 KECCAK256 PUSH1 0x0 ADD SWAP1 DUP1 MLOAD SWAP1 PUSH1 0x20 ADD SWAP1 PUSH2 0x104 SWAP3 SWAP2 SWAP1 PUSH2 0x666 JUMP JUMPDEST POP DUP4 PUSH1 0x0 DUP7 PUSH1 0x40 MLOAD PUSH2 0x116 SWAP2 SWAP1 PUSH2 0xB1C JUMP JUMPDEST SWAP1 DUP2 MSTORE PUSH1 0x20 ADD PUSH1 0x40 MLOAD DUP1 SWAP2 SUB SWAP1 KECCAK256 PUSH1 0x1 ADD SWAP1 DUP1 MLOAD SWAP1 PUSH1 0x20 ADD SWAP1 PUSH2 0x13A SWAP3 SWAP2 SWAP1 PUSH2 0x666 JUMP JUMPDEST POP DUP3 PUSH1 0x0 DUP7 PUSH1 0x40 MLOAD PUSH2 0x14C SWAP2 SWAP1 PUSH2 0xB1C JUMP JUMPDEST SWAP1 DUP2 MSTORE PUSH1 0x20 ADD PUSH1 0x40 MLOAD DUP1 SWAP2 SUB SWAP1 KECCAK256 PUSH1 0x2 ADD SWAP1 DUP1 MLOAD SWAP1 PUSH1 0x20 ADD SWAP1 PUSH2 0x170 SWAP3 SWAP2 SWAP1 PUSH2 0x666 JUMP JUMPDEST POP DUP2 PUSH1 0x0 DUP7 PUSH1 0x40 MLOAD PUSH2 0x182 SWAP2 SWAP1 PUSH2 0xB1C JUMP JUMPDEST SWAP1 DUP2 MSTORE PUSH1 0x20 ADD PUSH1 0x40 MLOAD DUP1 SWAP2 SUB SWAP1 KECCAK256 PUSH1 0x3 ADD SWAP1 DUP1 MLOAD SWAP1 PUSH1 0x20 ADD SWAP1 PUSH2 0x1A6 SWAP3 SWAP2 SWAP1 PUSH2 0x666 JUMP JUMPDEST POP DUP1 PUSH1 0x0 DUP7 PUSH1 0x40 MLOAD PUSH2 0x1B8 SWAP2 SWAP1 PUSH2 0xB1C JUMP JUMPDEST SWAP1 DUP2 MSTORE PUSH1 0x20 ADD PUSH1 0x40 MLOAD DUP1 SWAP2 SUB SWAP1 KECCAK256 PUSH1 0x4 ADD SWAP1 DUP1 MLOAD SWAP1 PUSH1 0x20 ADD SWAP1 PUSH2 0x1DC SWAP3 SWAP2 SWAP1 PUSH2 0x666 JUMP JUMPDEST POP POP POP POP POP POP JUMP JUMPDEST PUSH2 0x1EC PUSH2 0x6EC JUMP JUMPDEST DUP3 PUSH1 0x40 MLOAD PUSH1 0x20 ADD PUSH2 0x1FD SWAP2 SWAP1 PUSH2 0xB1C JUMP JUMPDEST PUSH1 0x40 MLOAD PUSH1 0x20 DUP2 DUP4 SUB SUB DUP2 MSTORE SWAP1 PUSH1 0x40 MSTORE DUP1 MLOAD SWAP1 PUSH1 0x20 ADD KECCAK256 PUSH1 0x0 DUP5 PUSH1 0x40 MLOAD PUSH2 0x223 SWAP2 SWAP1 PUSH2 0xB1C JUMP JUMPDEST SWAP1 DUP2 MSTORE PUSH1 0x20 ADD PUSH1 0x40 MLOAD DUP1 SWAP2 SUB SWAP1 KECCAK256 PUSH1 0x0 ADD PUSH1 0x40 MLOAD PUSH1 0x20 ADD PUSH2 0x244 SWAP2 SWAP1 PUSH2 0xB33 JUMP JUMPDEST PUSH1 0x40 MLOAD PUSH1 0x20 DUP2 DUP4 SUB SUB DUP2 MSTORE SWAP1 PUSH1 0x40 MSTORE DUP1 MLOAD SWAP1 PUSH1 0x20 ADD KECCAK256 EQ DUP1 ISZERO PUSH2 0x2D2 JUMPI POP DUP2 PUSH1 0x40 MLOAD PUSH1 0x20 ADD PUSH2 0x273 SWAP2 SWAP1 PUSH2 0xB1C JUMP JUMPDEST PUSH1 0x40 MLOAD PUSH1 0x20 DUP2 DUP4 SUB SUB DUP2 MSTORE SWAP1 PUSH1 0x40 MSTORE DUP1 MLOAD SWAP1 PUSH1 0x20 ADD KECCAK256 PUSH1 0x0 DUP4 PUSH1 0x40 MLOAD PUSH2 0x299 SWAP2 SWAP1 PUSH2 0xB1C JUMP JUMPDEST SWAP1 DUP2 MSTORE PUSH1 0x20 ADD PUSH1 0x40 MLOAD DUP1 SWAP2 SUB SWAP1 KECCAK256 PUSH1 0x1 ADD PUSH1 0x40 MLOAD PUSH1 0x20 ADD PUSH2 0x2BA SWAP2 SWAP1 PUSH2 0xB33 JUMP JUMPDEST PUSH1 0x40 MLOAD PUSH1 0x20 DUP2 DUP4 SUB SUB DUP2 MSTORE SWAP1 PUSH1 0x40 MSTORE DUP1 MLOAD SWAP1 PUSH1 0x20 ADD KECCAK256 EQ JUMPDEST PUSH2 0x311 JUMPI PUSH1 0x40 MLOAD PUSH32 0x8C379A000000000000000000000000000000000000000000000000000000000 DUP2 MSTORE PUSH1 0x4 ADD PUSH2 0x308 SWAP1 PUSH2 0xB6A JUMP JUMPDEST PUSH1 0x40 MLOAD DUP1 SWAP2 SUB SWAP1 REVERT JUMPDEST PUSH1 0x0 DUP4 PUSH1 0x40 MLOAD PUSH2 0x321 SWAP2 SWAP1 PUSH2 0xB1C JUMP JUMPDEST SWAP1 DUP2 MSTORE PUSH1 0x20 ADD PUSH1 0x40 MLOAD DUP1 SWAP2 SUB SWAP1 KECCAK256 PUSH1 0x40 MLOAD DUP1 PUSH1 0xA0 ADD PUSH1 0x40 MSTORE SWAP1 DUP2 PUSH1 0x0 DUP3 ADD DUP1 SLOAD PUSH2 0x34A SWAP1 PUSH2 0xC9C JUMP JUMPDEST DUP1 PUSH1 0x1F ADD PUSH1 0x20 DUP1 SWAP2 DIV MUL PUSH1 0x20 ADD PUSH1 0x40 MLOAD SWAP1 DUP2 ADD PUSH1 0x40 MSTORE DUP1 SWAP3 SWAP2 SWAP1 DUP2 DUP2 MSTORE PUSH1 0x20 ADD DUP3 DUP1 SLOAD PUSH2 0x376 SWAP1 PUSH2 0xC9C JUMP JUMPDEST DUP1 ISZERO PUSH2 0x3C3 JUMPI DUP1 PUSH1 0x1F LT PUSH2 0x398 JUMPI PUSH2 0x100 DUP1 DUP4 SLOAD DIV MUL DUP4 MSTORE SWAP2 PUSH1 0x20 ADD SWAP2 PUSH2 0x3C3 JUMP JUMPDEST DUP3 ADD SWAP2 SWAP1 PUSH1 0x0 MSTORE PUSH1 0x20 PUSH1 0x0 KECCAK256 SWAP1 JUMPDEST DUP2 SLOAD DUP2 MSTORE SWAP1 PUSH1 0x1 ADD SWAP1 PUSH1 0x20 ADD DUP1 DUP4 GT PUSH2 0x3A6 JUMPI DUP3 SWAP1 SUB PUSH1 0x1F AND DUP3 ADD SWAP2 JUMPDEST POP POP POP POP POP DUP2 MSTORE PUSH1 0x20 ADD PUSH1 0x1 DUP3 ADD DUP1 SLOAD PUSH2 0x3DC SWAP1 PUSH2 0xC9C JUMP JUMPDEST DUP1 PUSH1 0x1F ADD PUSH1 0x20 DUP1 SWAP2 DIV MUL PUSH1 0x20 ADD PUSH1 0x40 MLOAD SWAP1 DUP2 ADD PUSH1 0x40 MSTORE DUP1 SWAP3 SWAP2 SWAP1 DUP2 DUP2 MSTORE PUSH1 0x20 ADD DUP3 DUP1 SLOAD PUSH2 0x408 SWAP1 PUSH2 0xC9C JUMP JUMPDEST DUP1 ISZERO PUSH2 0x455 JUMPI DUP1 PUSH1 0x1F LT PUSH2 0x42A JUMPI PUSH2 0x100 DUP1 DUP4 SLOAD DIV MUL DUP4 MSTORE SWAP2 PUSH1 0x20 ADD SWAP2 PUSH2 0x455 JUMP JUMPDEST DUP3 ADD SWAP2 SWAP1 PUSH1 0x0 MSTORE PUSH1 0x20 PUSH1 0x0 KECCAK256 SWAP1 JUMPDEST DUP2 SLOAD DUP2 MSTORE SWAP1 PUSH1 0x1 ADD SWAP1 PUSH1 0x20 ADD DUP1 DUP4 GT PUSH2 0x438 JUMPI DUP3 SWAP1 SUB PUSH1 0x1F AND DUP3 ADD SWAP2 JUMPDEST POP POP POP POP POP DUP2 MSTORE PUSH1 0x20 ADD PUSH1 0x2 DUP3 ADD DUP1 SLOAD PUSH2 0x46E SWAP1 PUSH2 0xC9C JUMP JUMPDEST DUP1 PUSH1 0x1F ADD PUSH1 0x20 DUP1 SWAP2 DIV MUL PUSH1 0x20 ADD PUSH1 0x40 MLOAD SWAP1 DUP2 ADD PUSH1 0x40 MSTORE DUP1 SWAP3 SWAP2 SWAP1 DUP2 DUP2 MSTORE PUSH1 0x20 ADD DUP3 DUP1 SLOAD PUSH2 0x49A SWAP1 PUSH2 0xC9C JUMP JUMPDEST DUP1 ISZERO PUSH2 0x4E7 JUMPI DUP1 PUSH1 0x1F LT PUSH2 0x4BC JUMPI PUSH2 0x100 DUP1 DUP4 SLOAD DIV MUL DUP4 MSTORE SWAP2 PUSH1 0x20 ADD SWAP2 PUSH2 0x4E7 JUMP JUMPDEST DUP3 ADD SWAP2 SWAP1 PUSH1 0x0 MSTORE PUSH1 0x20 PUSH1 0x0 KECCAK256 SWAP1 JUMPDEST DUP2 SLOAD DUP2 MSTORE SWAP1 PUSH1 0x1 ADD SWAP1 PUSH1 0x20 ADD DUP1 DUP4 GT PUSH2 0x4CA JUMPI DUP3 SWAP1 SUB PUSH1 0x1F AND DUP3 ADD SWAP2 JUMPDEST POP POP POP POP POP DUP2 MSTORE PUSH1 0x20 ADD PUSH1 0x3 DUP3 ADD DUP1 SLOAD PUSH2 0x500 SWAP1 PUSH2 0xC9C JUMP JUMPDEST DUP1 PUSH1 0x1F ADD PUSH1 0x20 DUP1 SWAP2 DIV MUL PUSH1 0x20 ADD PUSH1 0x40 MLOAD SWAP1 DUP2 ADD PUSH1 0x40 MSTORE DUP1 SWAP3 SWAP2 SWAP1 DUP2 DUP2 MSTORE PUSH1 0x20 ADD DUP3 DUP1 SLOAD PUSH2 0x52C SWAP1 PUSH2 0xC9C JUMP JUMPDEST DUP1 ISZERO PUSH2 0x579 JUMPI DUP1 PUSH1 0x1F LT PUSH2 0x54E JUMPI PUSH2 0x100 DUP1 DUP4 SLOAD DIV MUL DUP4 MSTORE SWAP2 PUSH1 0x20 ADD SWAP2 PUSH2 0x579 JUMP JUMPDEST DUP3 ADD SWAP2 SWAP1 PUSH1 0x0 MSTORE PUSH1 0x20 PUSH1 0x0 KECCAK256 SWAP1 JUMPDEST DUP2 SLOAD DUP2 MSTORE SWAP1 PUSH1 0x1 ADD SWAP1 PUSH1 0x20 ADD DUP1 DUP4 GT PUSH2 0x55C JUMPI DUP3 SWAP1 SUB PUSH1 0x1F AND DUP3 ADD SWAP2 JUMPDEST POP POP POP POP POP DUP2 MSTORE PUSH1 0x20 ADD PUSH1 0x4 DUP3 ADD DUP1 SLOAD PUSH2 0x592 SWAP1 PUSH2 0xC9C JUMP JUMPDEST DUP1 PUSH1 0x1F ADD PUSH1 0x20 DUP1 SWAP2 DIV MUL PUSH1 0x20 ADD PUSH1 0x40 MLOAD SWAP1 DUP2 ADD PUSH1 0x40 MSTORE DUP1 SWAP3 SWAP2 SWAP1 DUP2 DUP2 MSTORE PUSH1 0x20 ADD DUP3 DUP1 SLOAD PUSH2 0x5BE SWAP1 PUSH2 0xC9C JUMP JUMPDEST DUP1 ISZERO PUSH2 0x60B JUMPI DUP1 PUSH1 0x1F LT PUSH2 0x5E0 JUMPI PUSH2 0x100 DUP1 DUP4 SLOAD DIV MUL DUP4 MSTORE SWAP2 PUSH1 0x20 ADD SWAP2 PUSH2 0x60B JUMP JUMPDEST DUP3 ADD SWAP2 SWAP1 PUSH1 0x0 MSTORE PUSH1 0x20 PUSH1 0x0 KECCAK256 SWAP1 JUMPDEST DUP2 SLOAD DUP2 MSTORE SWAP1 PUSH1 0x1 ADD SWAP1 PUSH1 0x20 ADD DUP1 DUP4 GT PUSH2 0x5EE JUMPI DUP3 SWAP1 SUB PUSH1 0x1F AND DUP3 ADD SWAP2 JUMPDEST POP POP POP POP POP DUP2 MSTORE POP POP SWAP1 POP SWAP3 SWAP2 POP POP JUMP JUMPDEST PUSH1 0x0 DUP1 PUSH1 0x0 DUP4 PUSH1 0x40 MLOAD PUSH2 0x62F SWAP2 SWAP1 PUSH2 0xB1C JUMP JUMPDEST SWAP1 DUP2 MSTORE PUSH1 0x20 ADD PUSH1 0x40 MLOAD DUP1 SWAP2 SUB SWAP1 KECCAK256 PUSH1 0x0 ADD DUP1 SLOAD PUSH2 0x64B SWAP1 PUSH2 0xC9C JUMP JUMPDEST SWAP1 POP EQ ISZERO PUSH2 0x65C JUMPI PUSH1 0x1 SWAP1 POP PUSH2 0x661 JUMP JUMPDEST PUSH1 0x0 SWAP1 POP JUMPDEST SWAP2 SWAP1 POP JUMP JUMPDEST DUP3 DUP1 SLOAD PUSH2 0x672 SWAP1 PUSH2 0xC9C JUMP JUMPDEST SWAP1 PUSH1 0x0 MSTORE PUSH1 0x20 PUSH1 0x0 KECCAK256 SWAP1 PUSH1 0x1F ADD PUSH1 0x20 SWAP1 DIV DUP2 ADD SWAP3 DUP3 PUSH2 0x694 JUMPI PUSH1 0x0 DUP6 SSTORE PUSH2 0x6DB JUMP JUMPDEST DUP3 PUSH1 0x1F LT PUSH2 0x6AD JUMPI DUP1 MLOAD PUSH1 0xFF NOT AND DUP4 DUP1 ADD OR DUP6 SSTORE PUSH2 0x6DB JUMP JUMPDEST DUP3 DUP1 ADD PUSH1 0x1 ADD DUP6 SSTORE DUP3 ISZERO PUSH2 0x6DB JUMPI SWAP2 DUP3 ADD JUMPDEST DUP3 DUP2 GT ISZERO PUSH2 0x6DA JUMPI DUP3 MLOAD DUP3 SSTORE SWAP2 PUSH1 0x20 ADD SWAP2 SWAP1 PUSH1 0x1 ADD SWAP1 PUSH2 0x6BF JUMP JUMPDEST JUMPDEST POP SWAP1 POP PUSH2 0x6E8 SWAP2 SWAP1 PUSH2 0x71B JUMP JUMPDEST POP SWAP1 JUMP JUMPDEST PUSH1 0x40 MLOAD DUP1 PUSH1 0xA0 ADD PUSH1 0x40 MSTORE DUP1 PUSH1 0x60 DUP2 MSTORE PUSH1 0x20 ADD PUSH1 0x60 DUP2 MSTORE PUSH1 0x20 ADD PUSH1 0x60 DUP2 MSTORE PUSH1 0x20 ADD PUSH1 0x60 DUP2 MSTORE PUSH1 0x20 ADD PUSH1 0x60 DUP2 MSTORE POP SWAP1 JUMP JUMPDEST JUMPDEST DUP1 DUP3 GT ISZERO PUSH2 0x734 JUMPI PUSH1 0x0 DUP2 PUSH1 0x0 SWAP1 SSTORE POP PUSH1 0x1 ADD PUSH2 0x71C JUMP JUMPDEST POP SWAP1 JUMP JUMPDEST PUSH1 0x0 PUSH2 0x74B PUSH2 0x746 DUP5 PUSH2 0xBDD JUMP JUMPDEST PUSH2 0xBAC JUMP JUMPDEST SWAP1 POP DUP3 DUP2 MSTORE PUSH1 0x20 DUP2 ADD DUP5 DUP5 DUP5 ADD GT ISZERO PUSH2 0x763 JUMPI PUSH1 0x0 DUP1 REVERT JUMPDEST PUSH2 0x76E DUP5 DUP3 DUP6 PUSH2 0xC5A JUMP JUMPDEST POP SWAP4 SWAP3 POP POP POP JUMP JUMPDEST PUSH1 0x0 DUP3 PUSH1 0x1F DUP4 ADD SLT PUSH2 0x787 JUMPI PUSH1 0x0 DUP1 REVERT JUMPDEST DUP2 CALLDATALOAD PUSH2 0x797 DUP5 DUP3 PUSH1 0x20 DUP7 ADD PUSH2 0x738 JUMP JUMPDEST SWAP2 POP POP SWAP3 SWAP2 POP POP JUMP JUMPDEST PUSH1 0x0 DUP1 PUSH1 0x40 DUP4 DUP6 SUB SLT ISZERO PUSH2 0x7B3 JUMPI PUSH1 0x0 DUP1 REVERT JUMPDEST PUSH1 0x0 DUP4 ADD CALLDATALOAD PUSH8 0xFFFFFFFFFFFFFFFF DUP2 GT ISZERO PUSH2 0x7CD JUMPI PUSH1 0x0 DUP1 REVERT JUMPDEST PUSH2 0x7D9 DUP6 DUP3 DUP7 ADD PUSH2 0x776 JUMP JUMPDEST SWAP3 POP POP PUSH1 0x20 DUP4 ADD CALLDATALOAD PUSH8 0xFFFFFFFFFFFFFFFF DUP2 GT ISZERO PUSH2 0x7F6 JUMPI PUSH1 0x0 DUP1 REVERT JUMPDEST PUSH2 0x802 DUP6 DUP3 DUP7 ADD PUSH2 0x776 JUMP JUMPDEST SWAP2 POP POP SWAP3 POP SWAP3 SWAP1 POP JUMP JUMPDEST PUSH1 0x0 DUP1 PUSH1 0x0 DUP1 PUSH1 0x0 PUSH1 0xA0 DUP7 DUP9 SUB SLT ISZERO PUSH2 0x824 JUMPI PUSH1 0x0 DUP1 REVERT JUMPDEST PUSH1 0x0 DUP7 ADD CALLDATALOAD PUSH8 0xFFFFFFFFFFFFFFFF DUP2 GT ISZERO PUSH2 0x83E JUMPI PUSH1 0x0 DUP1 REVERT JUMPDEST PUSH2 0x84A DUP9 DUP3 DUP10 ADD PUSH2 0x776 JUMP JUMPDEST SWAP6 POP POP PUSH1 0x20 DUP7 ADD CALLDATALOAD PUSH8 0xFFFFFFFFFFFFFFFF DUP2 GT ISZERO PUSH2 0x867 JUMPI PUSH1 0x0 DUP1 REVERT JUMPDEST PUSH2 0x873 DUP9 DUP3 DUP10 ADD PUSH2 0x776 JUMP JUMPDEST SWAP5 POP POP PUSH1 0x40 DUP7 ADD CALLDATALOAD PUSH8 0xFFFFFFFFFFFFFFFF DUP2 GT ISZERO PUSH2 0x890 JUMPI PUSH1 0x0 DUP1 REVERT JUMPDEST PUSH2 0x89C DUP9 DUP3 DUP10 ADD PUSH2 0x776 JUMP JUMPDEST SWAP4 POP POP PUSH1 0x60 DUP7 ADD CALLDATALOAD PUSH8 0xFFFFFFFFFFFFFFFF DUP2 GT ISZERO PUSH2 0x8B9 JUMPI PUSH1 0x0 DUP1 REVERT JUMPDEST PUSH2 0x8C5 DUP9 DUP3 DUP10 ADD PUSH2 0x776 JUMP JUMPDEST SWAP3 POP POP PUSH1 0x80 DUP7 ADD CALLDATALOAD PUSH8 0xFFFFFFFFFFFFFFFF DUP2 GT ISZERO PUSH2 0x8E2 JUMPI PUSH1 0x0 DUP1 REVERT JUMPDEST PUSH2 0x8EE DUP9 DUP3 DUP10 ADD PUSH2 0x776 JUMP JUMPDEST SWAP2 POP POP SWAP3 SWAP6 POP SWAP3 SWAP6 SWAP1 SWAP4 POP JUMP JUMPDEST PUSH1 0x0 PUSH2 0x906 DUP3 PUSH2 0xC22 JUMP JUMPDEST PUSH2 0x910 DUP2 DUP6 PUSH2 0xC2D JUMP JUMPDEST SWAP4 POP PUSH2 0x920 DUP2 DUP6 PUSH1 0x20 DUP7 ADD PUSH2 0xC69 JUMP JUMPDEST PUSH2 0x929 DUP2 PUSH2 0xD2C JUMP JUMPDEST DUP5 ADD SWAP2 POP POP SWAP3 SWAP2 POP POP JUMP JUMPDEST PUSH1 0x0 PUSH2 0x93F DUP3 PUSH2 0xC22 JUMP JUMPDEST PUSH2 0x949 DUP2 DUP6 PUSH2 0xC4F JUMP JUMPDEST SWAP4 POP PUSH2 0x959 DUP2 DUP6 PUSH1 0x20 DUP7 ADD PUSH2 0xC69 JUMP JUMPDEST DUP1 DUP5 ADD SWAP2 POP POP SWAP3 SWAP2 POP POP JUMP JUMPDEST PUSH1 0x0 DUP2 SLOAD PUSH2 0x972 DUP2 PUSH2 0xC9C JUMP JUMPDEST PUSH2 0x97C DUP2 DUP7 PUSH2 0xC4F JUMP JUMPDEST SWAP5 POP PUSH1 0x1 DUP3 AND PUSH1 0x0 DUP2 EQ PUSH2 0x997 JUMPI PUSH1 0x1 DUP2 EQ PUSH2 0x9A8 JUMPI PUSH2 0x9DB JUMP JUMPDEST PUSH1 0xFF NOT DUP4 AND DUP7 MSTORE DUP2 DUP7 ADD SWAP4 POP PUSH2 0x9DB JUMP JUMPDEST PUSH2 0x9B1 DUP6 PUSH2 0xC0D JUMP JUMPDEST PUSH1 0x0 JUMPDEST DUP4 DUP2 LT ISZERO PUSH2 0x9D3 JUMPI DUP2 SLOAD DUP2 DUP10 ADD MSTORE PUSH1 0x1 DUP3 ADD SWAP2 POP PUSH1 0x20 DUP2 ADD SWAP1 POP PUSH2 0x9B4 JUMP JUMPDEST DUP4 DUP9 ADD SWAP6 POP POP POP JUMPDEST POP POP POP SWAP3 SWAP2 POP POP JUMP JUMPDEST PUSH1 0x0 PUSH2 0x9F1 PUSH1 0x12 DUP4 PUSH2 0xC3E JUMP JUMPDEST SWAP2 POP PUSH32 0x557365726E616D6520616C726561647920210000000000000000000000000000 PUSH1 0x0 DUP4 ADD MSTORE PUSH1 0x20 DUP3 ADD SWAP1 POP SWAP2 SWAP1 POP JUMP JUMPDEST PUSH1 0x0 PUSH2 0xA31 PUSH1 0x23 DUP4 PUSH2 0xC3E JUMP JUMPDEST SWAP2 POP PUSH32 0x557365726E616D65206F722070617373776F726420697320696E636F72726563 PUSH1 0x0 DUP4 ADD MSTORE PUSH32 0x7420210000000000000000000000000000000000000000000000000000000000 PUSH1 0x20 DUP4 ADD MSTORE PUSH1 0x40 DUP3 ADD SWAP1 POP SWAP2 SWAP1 POP JUMP JUMPDEST PUSH1 0x0 PUSH1 0xA0 DUP4 ADD PUSH1 0x0 DUP4 ADD MLOAD DUP5 DUP3 SUB PUSH1 0x0 DUP7 ADD MSTORE PUSH2 0xAA7 DUP3 DUP3 PUSH2 0x8FB JUMP JUMPDEST SWAP2 POP POP PUSH1 0x20 DUP4 ADD MLOAD DUP5 DUP3 SUB PUSH1 0x20 DUP7 ADD MSTORE PUSH2 0xAC1 DUP3 DUP3 PUSH2 0x8FB JUMP JUMPDEST SWAP2 POP POP PUSH1 0x40 DUP4 ADD MLOAD DUP5 DUP3 SUB PUSH1 0x40 DUP7 ADD MSTORE PUSH2 0xADB DUP3 DUP3 PUSH2 0x8FB JUMP JUMPDEST SWAP2 POP POP PUSH1 0x60 DUP4 ADD MLOAD DUP5 DUP3 SUB PUSH1 0x60 DUP7 ADD MSTORE PUSH2 0xAF5 DUP3 DUP3 PUSH2 0x8FB JUMP JUMPDEST SWAP2 POP POP PUSH1 0x80 DUP4 ADD MLOAD DUP5 DUP3 SUB PUSH1 0x80 DUP7 ADD MSTORE PUSH2 0xB0F DUP3 DUP3 PUSH2 0x8FB JUMP JUMPDEST SWAP2 POP POP DUP1 SWAP2 POP POP SWAP3 SWAP2 POP POP JUMP JUMPDEST PUSH1 0x0 PUSH2 0xB28 DUP3 DUP5 PUSH2 0x934 JUMP JUMPDEST SWAP2 POP DUP2 SWAP1 POP SWAP3 SWAP2 POP POP JUMP JUMPDEST PUSH1 0x0 PUSH2 0xB3F DUP3 DUP5 PUSH2 0x965 JUMP JUMPDEST SWAP2 POP DUP2 SWAP1 POP SWAP3 SWAP2 POP POP JUMP JUMPDEST PUSH1 0x0 PUSH1 0x20 DUP3 ADD SWAP1 POP DUP2 DUP2 SUB PUSH1 0x0 DUP4 ADD MSTORE PUSH2 0xB63 DUP2 PUSH2 0x9E4 JUMP JUMPDEST SWAP1 POP SWAP2 SWAP1 POP JUMP JUMPDEST PUSH1 0x0 PUSH1 0x20 DUP3 ADD SWAP1 POP DUP2 DUP2 SUB PUSH1 0x0 DUP4 ADD MSTORE PUSH2 0xB83 DUP2 PUSH2 0xA24 JUMP JUMPDEST SWAP1 POP SWAP2 SWAP1 POP JUMP JUMPDEST PUSH1 0x0 PUSH1 0x20 DUP3 ADD SWAP1 POP DUP2 DUP2 SUB PUSH1 0x0 DUP4 ADD MSTORE PUSH2 0xBA4 DUP2 DUP5 PUSH2 0xA8A JUMP JUMPDEST SWAP1 POP SWAP3 SWAP2 POP POP JUMP JUMPDEST PUSH1 0x0 PUSH1 0x40 MLOAD SWAP1 POP DUP2 DUP2 ADD DUP2 DUP2 LT PUSH8 0xFFFFFFFFFFFFFFFF DUP3 GT OR ISZERO PUSH2 0xBD3 JUMPI PUSH2 0xBD2 PUSH2 0xCFD JUMP JUMPDEST JUMPDEST DUP1 PUSH1 0x40 MSTORE POP SWAP2 SWAP1 POP JUMP JUMPDEST PUSH1 0x0 PUSH8 0xFFFFFFFFFFFFFFFF DUP3 GT ISZERO PUSH2 0xBF8 JUMPI PUSH2 0xBF7 PUSH2 0xCFD JUMP JUMPDEST JUMPDEST PUSH1 0x1F NOT PUSH1 0x1F DUP4 ADD AND SWAP1 POP PUSH1 0x20 DUP2 ADD SWAP1 POP SWAP2 SWAP1 POP JUMP JUMPDEST PUSH1 0x0 DUP2 SWAP1 POP DUP2 PUSH1 0x0 MSTORE PUSH1 0x20 PUSH1 0x0 KECCAK256 SWAP1 POP SWAP2 SWAP1 POP JUMP JUMPDEST PUSH1 0x0 DUP2 MLOAD SWAP1 POP SWAP2 SWAP1 POP JUMP JUMPDEST PUSH1 0x0 DUP3 DUP3 MSTORE PUSH1 0x20 DUP3 ADD SWAP1 POP SWAP3 SWAP2 POP POP JUMP JUMPDEST PUSH1 0x0 DUP3 DUP3 MSTORE PUSH1 0x20 DUP3 ADD SWAP1 POP SWAP3 SWAP2 POP POP JUMP JUMPDEST PUSH1 0x0 DUP2 SWAP1 POP SWAP3 SWAP2 POP POP JUMP JUMPDEST DUP3 DUP2 DUP4 CALLDATACOPY PUSH1 0x0 DUP4 DUP4 ADD MSTORE POP POP POP JUMP JUMPDEST PUSH1 0x0 JUMPDEST DUP4 DUP2 LT ISZERO PUSH2 0xC87 JUMPI DUP1 DUP3 ADD MLOAD DUP2 DUP5 ADD MSTORE PUSH1 0x20 DUP2 ADD SWAP1 POP PUSH2 0xC6C JUMP JUMPDEST DUP4 DUP2 GT ISZERO PUSH2 0xC96 JUMPI PUSH1 0x0 DUP5 DUP5 ADD MSTORE JUMPDEST POP POP POP POP JUMP JUMPDEST PUSH1 0x0 PUSH1 0x2 DUP3 DIV SWAP1 POP PUSH1 0x1 DUP3 AND DUP1 PUSH2 0xCB4 JUMPI PUSH1 0x7F DUP3 AND SWAP2 POP JUMPDEST PUSH1 0x20 DUP3 LT DUP2 EQ ISZERO PUSH2 0xCC8 JUMPI PUSH2 0xCC7 PUSH2 0xCCE JUMP JUMPDEST JUMPDEST POP SWAP2 SWAP1 POP JUMP JUMPDEST PUSH32 0x4E487B7100000000000000000000000000000000000000000000000000000000 PUSH1 0x0 MSTORE PUSH1 0x22 PUSH1 0x4 MSTORE PUSH1 0x24 PUSH1 0x0 REVERT JUMPDEST PUSH32 0x4E487B7100000000000000000000000000000000000000000000000000000000 PUSH1 0x0 MSTORE PUSH1 0x41 PUSH1 0x4 MSTORE PUSH1 0x24 PUSH1 0x0 REVERT JUMPDEST PUSH1 0x0 PUSH1 0x1F NOT PUSH1 0x1F DUP4 ADD AND SWAP1 POP SWAP2 SWAP1 POP JUMP INVALID LOG2 PUSH5 0x6970667358 0x22 SLT KECCAK256 SWAP5 SELFDESTRUCT 0xC8 LOG2 STOP SGT PUSH24 0x51AA1E848E69406289BE1A69A9CFFED3AE2DD3FA8496CCEB 0x5D PUSH5 0x736F6C6343 STOP ADDMOD STOP STOP CALLER "
		},
		"gasEstimates": {
			"creation": {
				"codeDepositCost": "688600",
				"executionCost": "721",
				"totalCost": "689321"
			},
			"external": {
				"createUser(string,string,string,string,string)": "infinite",
				"getUser(string,string)": "infinite"
			},
			"internal": {
				"isUser(string memory)": "infinite"
			}
		},
		"methodIdentifiers": {
			"createUser(string,string,string,string,string)": "65c06f70",
			"getUser(string,string)": "83e6858f"
		}
	},
	"abi": [
		{
			"inputs": [
				{
					"internalType": "string",
					"name": "_username",
					"type": "string"
				},
				{
					"internalType": "string",
					"name": "_password",
					"type": "string"
				},
				{
					"internalType": "string",
					"name": "_name",
					"type": "string"
				},
				{
					"internalType": "string",
					"name": "_email",
					"type": "string"
				},
				{
					"internalType": "string",
					"name": "_phonenumber",
					"type": "string"
				}
			],
			"name": "createUser",
			"outputs": [],
			"stateMutability": "nonpayable",
			"type": "function"
		},
		{
			"inputs": [
				{
					"internalType": "string",
					"name": "_username",
					"type": "string"
				},
				{
					"internalType": "string",
					"name": "_password",
					"type": "string"
				}
			],
			"name": "getUser",
			"outputs": [
				{
					"components": [
						{
							"internalType": "string",
							"name": "username",
							"type": "string"
						},
						{
							"internalType": "string",
							"name": "password",
							"type": "string"
						},
						{
							"internalType": "string",
							"name": "name",
							"type": "string"
						},
						{
							"internalType": "string",
							"name": "email",
							"type": "string"
						},
						{
							"internalType": "string",
							"name": "phonenumber",
							"type": "string"
						}
					],
					"internalType": "struct iam.Users",
					"name": "",
					"type": "tuple"
				}
			],
			"stateMutability": "view",
			"type": "function"
		}
	]
}