{
  "contractName": "iam",
  "abi": [
    {
      "constant": true,
      "inputs": [
        {
          "internalType": "uint256",
          "name": "",
          "type": "uint256"
        }
      ],
      "name": "people",
      "outputs": [
        {
          "internalType": "uint256",
          "name": "uid",
          "type": "uint256"
        },
        {
          "internalType": "string",
          "name": "name",
          "type": "string"
        }
      ],
      "payable": false,
      "stateMutability": "view",
      "type": "function"
    },
    {
      "constant": false,
      "inputs": [
        {
          "internalType": "uint256",
          "name": "_uid",
          "type": "uint256"
        },
        {
          "internalType": "string",
          "name": "_name",
          "type": "string"
        }
      ],
      "name": "createPerson",
      "outputs": [],
      "payable": false,
      "stateMutability": "nonpayable",
      "type": "function"
    },
    {
      "constant": true,
      "inputs": [],
      "name": "sayHello",
      "outputs": [
        {
          "internalType": "string",
          "name": "",
          "type": "string"
        }
      ],
      "payable": false,
      "stateMutability": "view",
      "type": "function"
    }
  ],
  "bytecode": "0x60806040526040518060400160405280600d81526020017f57686174277320757020646f67000000000000000000000000000000000000008152506001908051906020019061004f929190610062565b5034801561005c57600080fd5b50610107565b828054600181600116156101000203166002900490600052602060002090601f016020900481019282601f106100a357805160ff19168380011785556100d1565b828001600101855582156100d1579182015b828111156100d05782518255916020019190600101906100b5565b5b5090506100de91906100e2565b5090565b61010491905b808211156101005760008160009055506001016100e8565b5090565b90565b6104f1806101166000396000f3fe608060405234801561001057600080fd5b50600436106100415760003560e01c80639e7a13ad14610046578063afcace46146100f4578063ef5fb05b146101b9575b600080fd5b6100726004803603602081101561005c57600080fd5b810190808035906020019092919050505061023c565b6040518083815260200180602001828103825283818151815260200191508051906020019080838360005b838110156100b857808201518184015260208101905061009d565b50505050905090810190601f1680156100e55780820380516001836020036101000a031916815260200191505b50935050505060405180910390f35b6101b76004803603604081101561010a57600080fd5b81019080803590602001909291908035906020019064010000000081111561013157600080fd5b82018360208201111561014357600080fd5b8035906020019184600183028401116401000000008311171561016557600080fd5b91908080601f016020809104026020016040519081016040528093929190818152602001838380828437600081840152601f19601f820116905080830192505050505050509192919290505050610305565b005b6101c1610375565b6040518080602001828103825283818151815260200191508051906020019080838360005b838110156102015780820151818401526020810190506101e6565b50505050905090810190601f16801561022e5780820380516001836020036101000a031916815260200191505b509250505060405180910390f35b6000818154811061024957fe5b9060005260206000209060020201600091509050806000015490806001018054600181600116156101000203166002900480601f0160208091040260200160405190810160405280929190818152602001828054600181600116156101000203166002900480156102fb5780601f106102d0576101008083540402835291602001916102fb565b820191906000526020600020905b8154815290600101906020018083116102de57829003601f168201915b5050505050905082565b60006040518060400160405280848152602001838152509080600181540180825580915050906001820390600052602060002090600202016000909192909190915060008201518160000155602082015181600101908051906020019061036d929190610417565b505050505050565b606060018054600181600116156101000203166002900480601f01602080910402602001604051908101604052809291908181526020018280546001816001161561010002031660029004801561040d5780601f106103e25761010080835404028352916020019161040d565b820191906000526020600020905b8154815290600101906020018083116103f057829003601f168201915b5050505050905090565b828054600181600116156101000203166002900490600052602060002090601f016020900481019282601f1061045857805160ff1916838001178555610486565b82800160010185558215610486579182015b8281111561048557825182559160200191906001019061046a565b5b5090506104939190610497565b5090565b6104b991905b808211156104b557600081600090555060010161049d565b5090565b9056fea265627a7a7231582049c5e2e8d0cd99e1cfd9ec4c8016c8fc117fcf1e5e29eb273191fbf9a7f1f70864736f6c63430005100032",
  "source": "// SPDX-License-Identifier: MIT\npragma solidity >=0.4.22 <0.9.0;\n\ncontract iam {\n    //constructor() public {\n    //}\n\n    struct Person {\n        uint256 uid;\n        string name;\n    }\n    Person[] public people;\n\n    function createPerson(uint256 _uid, string memory _name) public {\n        people.push(Person(_uid, _name));\n    }\n\n    string greeting = \"What's up dog\";\n\n    function sayHello() public view returns (string memory) {\n        return greeting;\n    }\n}\n",
  "sourcePath": "/Users/kritsanawipankhet/Documents/github/CE64-41/credential_store/contracts/iam.sol",
  "compiler": {
    "name": "solc",
    "version": "0.5.16+commit.9c3226ce.Emscripten.clang"
  },
  "schemaVersion": "3.4.3",
  "updatedAt": "2021-08-27T12:52:49.603Z",
  "devdoc": {
    "methods": {}
  },
  "userdoc": {
    "methods": {}
  }
}