{
  "contractName": "iam",
  "abi": [
    {
      "inputs": [
        {
          "internalType": "string",
          "name": "_email",
          "type": "string"
        },
        {
          "internalType": "string",
          "name": "_password",
          "type": "string"
        },
        {
          "internalType": "string",
          "name": "_firstname",
          "type": "string"
        },
        {
          "internalType": "string",
          "name": "_surname",
          "type": "string"
        },
        {
          "internalType": "string",
          "name": "_birthdate",
          "type": "string"
        },
        {
          "internalType": "string",
          "name": "_gender",
          "type": "string"
        }
      ],
      "name": "createUser",
      "outputs": [],
      "stateMutability": "nonpayable",
      "type": "function"
    },
    {
      "inputs": [
        {
          "internalType": "string",
          "name": "_email",
          "type": "string"
        },
        {
          "internalType": "string",
          "name": "_password",
          "type": "string"
        }
      ],
      "name": "getUser",
      "outputs": [
        {
          "components": [
            {
              "internalType": "string",
              "name": "email",
              "type": "string"
            },
            {
              "internalType": "string",
              "name": "password",
              "type": "string"
            },
            {
              "internalType": "string",
              "name": "firstname",
              "type": "string"
            },
            {
              "internalType": "string",
              "name": "surname",
              "type": "string"
            },
            {
              "internalType": "string",
              "name": "birthdate",
              "type": "string"
            },
            {
              "internalType": "string",
              "name": "gender",
              "type": "string"
            }
          ],
          "internalType": "struct iam.Users",
          "name": "",
          "type": "tuple"
        }
      ],
      "stateMutability": "view",
      "type": "function",
      "constant": true
    }
  ],
  "bytecode": "0x608060405234801561001057600080fd5b50610ee3806100206000396000f3fe608060405234801561001057600080fd5b50600436106100365760003560e01c806301dadb2b1461003b57806383e6858f14610057575b600080fd5b61005560048036038101906100509190610962565b610087565b005b610071600480360381019061006c9190610a97565b61021b565b60405161007e9190610c43565b60405180910390f35b610090866106e5565b6100cf576040517f08c379a00000000000000000000000000000000000000000000000000000000081526004016100c690610cc2565b60405180910390fd5b856000876040516100e09190610d1e565b9081526020016040518091039020600001908051906020019061010492919061072f565b50846000876040516101169190610d1e565b9081526020016040518091039020600101908051906020019061013a92919061072f565b508360008760405161014c9190610d1e565b9081526020016040518091039020600201908051906020019061017092919061072f565b50826000876040516101829190610d1e565b908152602001604051809103902060030190805190602001906101a692919061072f565b50816000876040516101b89190610d1e565b908152602001604051809103902060040190805190602001906101dc92919061072f565b50806000876040516101ee9190610d1e565b9081526020016040518091039020600501908051906020019061021292919061072f565b50505050505050565b6102236107b5565b826040516020016102349190610d1e565b6040516020818303038152906040528051906020012060008460405161025a9190610d1e565b908152602001604051809103902060000160405160200161027b9190610e2a565b604051602081830303815290604052805190602001201480156103095750816040516020016102aa9190610d1e565b604051602081830303815290604052805190602001206000846040516102d09190610d1e565b90815260200160405180910390206001016040516020016102f19190610e2a565b60405160208183030381529060405280519060200120145b610348576040517f08c379a000000000000000000000000000000000000000000000000000000000815260040161033f90610e8d565b60405180910390fd5b6000836040516103589190610d1e565b90815260200160405180910390206040518060c001604052908160008201805461038190610d64565b80601f01602080910402602001604051908101604052809291908181526020018280546103ad90610d64565b80156103fa5780601f106103cf576101008083540402835291602001916103fa565b820191906000526020600020905b8154815290600101906020018083116103dd57829003601f168201915b5050505050815260200160018201805461041390610d64565b80601f016020809104026020016040519081016040528092919081815260200182805461043f90610d64565b801561048c5780601f106104615761010080835404028352916020019161048c565b820191906000526020600020905b81548152906001019060200180831161046f57829003601f168201915b505050505081526020016002820180546104a590610d64565b80601f01602080910402602001604051908101604052809291908181526020018280546104d190610d64565b801561051e5780601f106104f35761010080835404028352916020019161051e565b820191906000526020600020905b81548152906001019060200180831161050157829003601f168201915b5050505050815260200160038201805461053790610d64565b80601f016020809104026020016040519081016040528092919081815260200182805461056390610d64565b80156105b05780601f10610585576101008083540402835291602001916105b0565b820191906000526020600020905b81548152906001019060200180831161059357829003601f168201915b505050505081526020016004820180546105c990610d64565b80601f01602080910402602001604051908101604052809291908181526020018280546105f590610d64565b80156106425780601f1061061757610100808354040283529160200191610642565b820191906000526020600020905b81548152906001019060200180831161062557829003601f168201915b5050505050815260200160058201805461065b90610d64565b80601f016020809104026020016040519081016040528092919081815260200182805461068790610d64565b80156106d45780601f106106a9576101008083540402835291602001916106d4565b820191906000526020600020905b8154815290600101906020018083116106b757829003601f168201915b505050505081525050905092915050565b6000806000836040516106f89190610d1e565b9081526020016040518091039020600001805461071490610d64565b90501415610725576001905061072a565b600090505b919050565b82805461073b90610d64565b90600052602060002090601f01602090048101928261075d57600085556107a4565b82601f1061077657805160ff19168380011785556107a4565b828001600101855582156107a4579182015b828111156107a3578251825591602001919060010190610788565b5b5090506107b191906107eb565b5090565b6040518060c001604052806060815260200160608152602001606081526020016060815260200160608152602001606081525090565b5b808211156108045760008160009055506001016107ec565b5090565b6000604051905090565b600080fd5b600080fd5b600080fd5b600080fd5b6000601f19601f8301169050919050565b7f4e487b7100000000000000000000000000000000000000000000000000000000600052604160045260246000fd5b61086f82610826565b810181811067ffffffffffffffff8211171561088e5761088d610837565b5b80604052505050565b60006108a1610808565b90506108ad8282610866565b919050565b600067ffffffffffffffff8211156108cd576108cc610837565b5b6108d682610826565b9050602081019050919050565b82818337600083830152505050565b6000610905610900846108b2565b610897565b90508281526020810184848401111561092157610920610821565b5b61092c8482856108e3565b509392505050565b600082601f8301126109495761094861081c565b5b81356109598482602086016108f2565b91505092915050565b60008060008060008060c0878903121561097f5761097e610812565b5b600087013567ffffffffffffffff81111561099d5761099c610817565b5b6109a989828a01610934565b965050602087013567ffffffffffffffff8111156109ca576109c9610817565b5b6109d689828a01610934565b955050604087013567ffffffffffffffff8111156109f7576109f6610817565b5b610a0389828a01610934565b945050606087013567ffffffffffffffff811115610a2457610a23610817565b5b610a3089828a01610934565b935050608087013567ffffffffffffffff811115610a5157610a50610817565b5b610a5d89828a01610934565b92505060a087013567ffffffffffffffff811115610a7e57610a7d610817565b5b610a8a89828a01610934565b9150509295509295509295565b60008060408385031215610aae57610aad610812565b5b600083013567ffffffffffffffff811115610acc57610acb610817565b5b610ad885828601610934565b925050602083013567ffffffffffffffff811115610af957610af8610817565b5b610b0585828601610934565b9150509250929050565b600081519050919050565b600082825260208201905092915050565b60005b83811015610b49578082015181840152602081019050610b2e565b83811115610b58576000848401525b50505050565b6000610b6982610b0f565b610b738185610b1a565b9350610b83818560208601610b2b565b610b8c81610826565b840191505092915050565b600060c0830160008301518482036000860152610bb48282610b5e565b91505060208301518482036020860152610bce8282610b5e565b91505060408301518482036040860152610be88282610b5e565b91505060608301518482036060860152610c028282610b5e565b91505060808301518482036080860152610c1c8282610b5e565b91505060a083015184820360a0860152610c368282610b5e565b9150508091505092915050565b60006020820190508181036000830152610c5d8184610b97565b905092915050565b600082825260208201905092915050565b7f456d61696c20616c726561647920210000000000000000000000000000000000600082015250565b6000610cac600f83610c65565b9150610cb782610c76565b602082019050919050565b60006020820190508181036000830152610cdb81610c9f565b9050919050565b600081905092915050565b6000610cf882610b0f565b610d028185610ce2565b9350610d12818560208601610b2b565b80840191505092915050565b6000610d2a8284610ced565b915081905092915050565b7f4e487b7100000000000000000000000000000000000000000000000000000000600052602260045260246000fd5b60006002820490506001821680610d7c57607f821691505b60208210811415610d9057610d8f610d35565b5b50919050565b60008190508160005260206000209050919050565b60008154610db881610d64565b610dc28186610ce2565b94506001821660008114610ddd5760018114610dee57610e21565b60ff19831686528186019350610e21565b610df785610d96565b60005b83811015610e1957815481890152600182019150602081019050610dfa565b838801955050505b50505092915050565b6000610e368284610dab565b915081905092915050565b7f456d61696c206f722070617373776f726420697320696e636f72726563742021600082015250565b6000610e77602083610c65565b9150610e8282610e41565b602082019050919050565b60006020820190508181036000830152610ea681610e6a565b905091905056fea2646970667358221220dc8074b20f6f3ead90d0fe4de3f8e37a863de377942b3bd3227fec98aff8466b64736f6c63430008090033",
  "immutableReferences": {},
  "source": "// SPDX-License-Identifier: MIT\npragma solidity >=0.8.0 <0.9.0;\n\ncontract iam {\n    struct Users {\n        string email;\n        string password;\n        string firstname;\n        string surname;\n        string birthdate;\n        string gender;\n    }\n\n    mapping(string => Users) users;\n\n    function createUser(\n        string memory _email,\n        string memory _password,\n        string memory _firstname,\n        string memory _surname,\n        string memory _birthdate,\n        string memory _gender\n    ) public {\n        require(isUser(_email), \"Email already !\");\n        users[_email].email = _email;\n        users[_email].password = _password;\n        users[_email].firstname = _firstname;\n        users[_email].surname = _surname;\n        users[_email].birthdate = _birthdate;\n        users[_email].gender = _gender;\n    }\n\n    function isUser(string memory _email) private view returns (bool) {\n        if (bytes(users[_email].email).length == 0) {\n            return true;\n        } else {\n            return false;\n        }\n    }\n\n    function getUser(string memory _email, string memory _password)\n        public\n        view\n        returns (Users memory)\n    {\n        require(\n            keccak256(abi.encodePacked(users[_email].email)) ==\n                keccak256(abi.encodePacked(_email)) &&\n                keccak256(abi.encodePacked(users[_email].password)) ==\n                keccak256(abi.encodePacked(_password)),\n            \"Email or password is incorrect !\"\n        );\n\n        return users[_email];\n    }\n}\n",
  "sourcePath": "/Users/kritsanawipankhet/Documents/github/CE64-41/smart_contract/iam/contracts/iam.sol",
  "compiler": {
    "name": "solc",
    "version": "0.8.9+commit.e5eed63a.Emscripten.clang"
  },
  "schemaVersion": "3.4.3",
  "updatedAt": "2021-10-20T20:28:05.954Z",
  "networkType": "ethereum",
  "devdoc": {
    "kind": "dev",
    "methods": {},
    "version": 1
  },
  "userdoc": {
    "kind": "user",
    "methods": {},
    "version": 1
  }
}