{
  "contractName": "iam",
  "abi": [
    {
      "inputs": [
        {
          "internalType": "address",
          "name": "",
          "type": "address"
        }
      ],
      "name": "users",
      "outputs": [
        {
          "internalType": "string",
          "name": "username",
          "type": "string"
        },
        {
          "internalType": "string",
          "name": "password",
          "type": "string"
        }
      ],
      "stateMutability": "view",
      "type": "function",
      "constant": true
    },
    {
      "inputs": [
        {
          "internalType": "string",
          "name": "_username",
          "type": "string"
        },
        {
          "internalType": "string",
          "name": "_password",
          "type": "string"
        }
      ],
      "name": "registerUsers",
      "outputs": [],
      "stateMutability": "nonpayable",
      "type": "function"
    },
    {
      "inputs": [
        {
          "internalType": "address",
          "name": "_id",
          "type": "address"
        }
      ],
      "name": "getUsers",
      "outputs": [
        {
          "components": [
            {
              "internalType": "string",
              "name": "username",
              "type": "string"
            },
            {
              "internalType": "string",
              "name": "password",
              "type": "string"
            }
          ],
          "internalType": "struct iam.Users",
          "name": "",
          "type": "tuple"
        }
      ],
      "stateMutability": "view",
      "type": "function",
      "constant": true
    }
  ],
  "bytecode": "0x608060405234801561001057600080fd5b50610943806100206000396000f3fe608060405234801561001057600080fd5b50600436106100415760003560e01c806356925a8314610046578063602b386e14610062578063a87430ba14610092575b600080fd5b610060600480360381019061005b9190610592565b6100c3565b005b61007c60048036038101906100779190610565565b610173565b60405161008991906106f7565b60405180910390f35b6100ac60048036038101906100a79190610565565b6102ef565b6040516100ba9291906106c0565b60405180910390f35b816000803373ffffffffffffffffffffffffffffffffffffffff1673ffffffffffffffffffffffffffffffffffffffff1681526020019081526020016000206000019080519060200190610118929190610423565b50806000803373ffffffffffffffffffffffffffffffffffffffff1673ffffffffffffffffffffffffffffffffffffffff168152602001908152602001600020600101908051906020019061016e929190610423565b505050565b61017b6104a9565b6000808373ffffffffffffffffffffffffffffffffffffffff1673ffffffffffffffffffffffffffffffffffffffff1681526020019081526020016000206040518060400160405290816000820180546101d490610810565b80601f016020809104026020016040519081016040528092919081815260200182805461020090610810565b801561024d5780601f106102225761010080835404028352916020019161024d565b820191906000526020600020905b81548152906001019060200180831161023057829003601f168201915b5050505050815260200160018201805461026690610810565b80601f016020809104026020016040519081016040528092919081815260200182805461029290610810565b80156102df5780601f106102b4576101008083540402835291602001916102df565b820191906000526020600020905b8154815290600101906020018083116102c257829003601f168201915b5050505050815250509050919050565b600060205280600052604060002060009150905080600001805461031290610810565b80601f016020809104026020016040519081016040528092919081815260200182805461033e90610810565b801561038b5780601f106103605761010080835404028352916020019161038b565b820191906000526020600020905b81548152906001019060200180831161036e57829003601f168201915b5050505050908060010180546103a090610810565b80601f01602080910402602001604051908101604052809291908181526020018280546103cc90610810565b80156104195780601f106103ee57610100808354040283529160200191610419565b820191906000526020600020905b8154815290600101906020018083116103fc57829003601f168201915b5050505050905082565b82805461042f90610810565b90600052602060002090601f0160209004810192826104515760008555610498565b82601f1061046a57805160ff1916838001178555610498565b82800160010185558215610498579182015b8281111561049757825182559160200191906001019061047c565b5b5090506104a591906104c3565b5090565b604051806040016040528060608152602001606081525090565b5b808211156104dc5760008160009055506001016104c4565b5090565b60006104f36104ee8461073e565b610719565b90508281526020810184848401111561050f5761050e6108d6565b5b61051a8482856107ce565b509392505050565b600081359050610531816108f6565b92915050565b600082601f83011261054c5761054b6108d1565b5b813561055c8482602086016104e0565b91505092915050565b60006020828403121561057b5761057a6108e0565b5b600061058984828501610522565b91505092915050565b600080604083850312156105a9576105a86108e0565b5b600083013567ffffffffffffffff8111156105c7576105c66108db565b5b6105d385828601610537565b925050602083013567ffffffffffffffff8111156105f4576105f36108db565b5b61060085828601610537565b9150509250929050565b60006106158261076f565b61061f818561077a565b935061062f8185602086016107dd565b610638816108e5565b840191505092915050565b600061064e8261076f565b610658818561078b565b93506106688185602086016107dd565b610671816108e5565b840191505092915050565b60006040830160008301518482036000860152610699828261060a565b915050602083015184820360208601526106b3828261060a565b9150508091505092915050565b600060408201905081810360008301526106da8185610643565b905081810360208301526106ee8184610643565b90509392505050565b60006020820190508181036000830152610711818461067c565b905092915050565b6000610723610734565b905061072f8282610842565b919050565b6000604051905090565b600067ffffffffffffffff821115610759576107586108a2565b5b610762826108e5565b9050602081019050919050565b600081519050919050565b600082825260208201905092915050565b600082825260208201905092915050565b60006107a7826107ae565b9050919050565b600073ffffffffffffffffffffffffffffffffffffffff82169050919050565b82818337600083830152505050565b60005b838110156107fb5780820151818401526020810190506107e0565b8381111561080a576000848401525b50505050565b6000600282049050600182168061082857607f821691505b6020821081141561083c5761083b610873565b5b50919050565b61084b826108e5565b810181811067ffffffffffffffff8211171561086a576108696108a2565b5b80604052505050565b7f4e487b7100000000000000000000000000000000000000000000000000000000600052602260045260246000fd5b7f4e487b7100000000000000000000000000000000000000000000000000000000600052604160045260246000fd5b600080fd5b600080fd5b600080fd5b600080fd5b6000601f19601f8301169050919050565b6108ff8161079c565b811461090a57600080fd5b5056fea26469706673582212205530df013dd894dc8479db868ea216e1f7c079050e05986ef9e0bae6c95cab6c64736f6c63430008070033",
  "immutableReferences": {},
  "source": "// SPDX-License-Identifier: MIT\npragma solidity >=0.8.0 <0.9.0;\n\ncontract iam {\n    struct Users {\n        string username;\n        string password;\n    }\n    struct Services {\n        string services_name;\n    }\n    mapping(address => Users) public users;\n    mapping(uint256 => Services) services;\n\n    // string private name;\n\n    // constructor() public {\n    //     name = \"KritsanaWipankhet\";\n    //     users[0] = Users(\"kritsana\", \"password\");\n    //     users[1] = Users(\"wipankhet\", \"password\");\n    // }\n\n    function registerUsers(string memory _username, string memory _password)\n        public\n    {\n        users[msg.sender].username = _username;\n        users[msg.sender].password = _password;\n        // users[msg.sender].services[0].services_name = \"Facebook\";\n    }\n\n    function getUsers(address _id) public view returns (Users memory) {\n        return users[_id];\n    }\n}\n",
  "sourcePath": "/Users/kritsanawipankhet/Documents/github/CE64-41/credential_store/iam/contracts/iam.sol",
  "compiler": {
    "name": "solc",
    "version": "0.8.7+commit.e28d00a7.Emscripten.clang"
  },
  "schemaVersion": "3.4.3",
  "updatedAt": "2021-09-17T22:05:02.049Z",
  "networkType": "ethereum",
  "devdoc": {
    "kind": "dev",
    "methods": {},
    "version": 1
  },
  "userdoc": {
    "kind": "user",
    "methods": {},
    "version": 1
  }
}