{
  "contractName": "iam",
  "abi": [
    {
      "inputs": [
        {
          "internalType": "string",
          "name": "_email",
          "type": "string"
        },
        {
          "internalType": "string",
          "name": "_password",
          "type": "string"
        },
        {
          "internalType": "string",
          "name": "_firstname",
          "type": "string"
        },
        {
          "internalType": "string",
          "name": "_surname",
          "type": "string"
        },
        {
          "internalType": "string",
          "name": "_birthdate",
          "type": "string"
        },
        {
          "internalType": "string",
          "name": "_gender",
          "type": "string"
        }
      ],
      "name": "createUser",
      "outputs": [],
      "stateMutability": "nonpayable",
      "type": "function"
    },
    {
      "inputs": [
        {
          "internalType": "string",
          "name": "_email",
          "type": "string"
        },
        {
          "internalType": "string",
          "name": "_password",
          "type": "string"
        }
      ],
      "name": "getUser",
      "outputs": [
        {
          "components": [
            {
              "internalType": "string",
              "name": "email",
              "type": "string"
            },
            {
              "internalType": "string",
              "name": "password",
              "type": "string"
            },
            {
              "internalType": "string",
              "name": "firstname",
              "type": "string"
            },
            {
              "internalType": "string",
              "name": "surname",
              "type": "string"
            },
            {
              "internalType": "string",
              "name": "birthdate",
              "type": "string"
            },
            {
              "internalType": "string",
              "name": "gender",
              "type": "string"
            }
          ],
          "internalType": "struct iam.Users",
          "name": "",
          "type": "tuple"
        }
      ],
      "stateMutability": "view",
      "type": "function"
    },
    {
      "inputs": [
        {
          "internalType": "string",
          "name": "_client_id",
          "type": "string"
        },
        {
          "internalType": "string",
          "name": "_client_name",
          "type": "string"
        },
        {
          "internalType": "string",
          "name": "_email",
          "type": "string"
        }
      ],
      "name": "createClient",
      "outputs": [],
      "stateMutability": "nonpayable",
      "type": "function"
    },
    {
      "inputs": [
        {
          "internalType": "string",
          "name": "_client_id",
          "type": "string"
        }
      ],
      "name": "getClient",
      "outputs": [
        {
          "components": [
            {
              "internalType": "string",
              "name": "client_id",
              "type": "string"
            },
            {
              "internalType": "string",
              "name": "email",
              "type": "string"
            },
            {
              "internalType": "string",
              "name": "clinet_secret",
              "type": "string"
            },
            {
              "internalType": "string",
              "name": "client_name",
              "type": "string"
            },
            {
              "internalType": "string",
              "name": "client_logo",
              "type": "string"
            },
            {
              "internalType": "string",
              "name": "client_description",
              "type": "string"
            },
            {
              "internalType": "string",
              "name": "client_homepage",
              "type": "string"
            },
            {
              "internalType": "string",
              "name": "redirect_uri",
              "type": "string"
            }
          ],
          "internalType": "struct iam.Clients",
          "name": "",
          "type": "tuple"
        }
      ],
      "stateMutability": "view",
      "type": "function"
    },
    {
      "inputs": [
        {
          "internalType": "string",
          "name": "_email",
          "type": "string"
        }
      ],
      "name": "getClients_of_User",
      "outputs": [
        {
          "internalType": "string[]",
          "name": "",
          "type": "string[]"
        }
      ],
      "stateMutability": "view",
      "type": "function"
    },
    {
      "inputs": [
        {
          "internalType": "string",
          "name": "_client_id",
          "type": "string"
        }
      ],
      "name": "delClient",
      "outputs": [],
      "stateMutability": "nonpayable",
      "type": "function"
    }
  ],
  "bytecode": "0x608060405234801561001057600080fd5b50612193806100206000396000f3fe608060405234801561001057600080fd5b50600436106100625760003560e01c806301dadb2b146100675780632eed7269146100835780636ae5134c1461009f5780637eb78932146100bb57806383e6858f146100eb578063e6b6403b1461011b575b600080fd5b610081600480360381019061007c91906116e3565b61014b565b005b61009d60048036038101906100989190611818565b6102df565b005b6100b960048036038101906100b491906118bf565b610429565b005b6100d560048036038101906100d091906118bf565b6107aa565b6040516100e29190611a71565b60405180910390f35b61010560048036038101906101009190611a93565b610cbc565b6040516101129190611bb7565b60405180910390f35b610135600480360381019061013091906118bf565b611186565b6040516101429190611c9b565b60405180910390f35b610154866112c9565b610193576040517f08c379a000000000000000000000000000000000000000000000000000000000815260040161018a90611d1a565b60405180910390fd5b856000876040516101a49190611d76565b908152602001604051809103902060000190805190602001906101c892919061139e565b50846000876040516101da9190611d76565b908152602001604051809103902060010190805190602001906101fe92919061139e565b50836000876040516102109190611d76565b9081526020016040518091039020600201908051906020019061023492919061139e565b50826000876040516102469190611d76565b9081526020016040518091039020600301908051906020019061026a92919061139e565b508160008760405161027c9190611d76565b908152602001604051809103902060040190805190602001906102a092919061139e565b50806000876040516102b29190611d76565b908152602001604051809103902060050190805190602001906102d692919061139e565b50505050505050565b6102e883611313565b610327576040517f08c379a000000000000000000000000000000000000000000000000000000000815260040161031e90611dd9565b60405180910390fd5b826001846040516103389190611d76565b9081526020016040518091039020600001908051906020019061035c92919061139e565b508160018460405161036e9190611d76565b9081526020016040518091039020600301908051906020019061039292919061139e565b50806001846040516103a49190611d76565b908152602001604051809103902060010190805190602001906103c892919061139e565b506002816040516103d99190611d76565b90815260200160405180910390206000018390806001815401808255809150506001900390600052602060002001600090919091909150908051906020019061042392919061139e565b50505050565b61043281611313565b15610472576040517f08c379a000000000000000000000000000000000000000000000000000000000815260040161046990611e45565b60405180910390fd5b60006001826040516104849190611d76565b908152602001604051809103902060010180546104a090611e94565b80601f01602080910402602001604051908101604052809291908181526020018280546104cc90611e94565b80156105195780601f106104ee57610100808354040283529160200191610519565b820191906000526020600020905b8154815290600101906020018083116104fc57829003601f168201915b5050505050905060005b6002826040516105339190611d76565b9081526020016040518091039020600001805490508110156106b557826040516020016105609190611d76565b604051602081830303815290604052805190602001206002836040516105869190611d76565b908152602001604051809103902060000182815481106105a9576105a8611ec6565b5b906000526020600020016040516020016105c39190611f89565b6040516020818303038152906040528051906020012014156106a2576002826040516105ef9190611d76565b908152602001604051809103902060000160016002846040516106129190611d76565b9081526020016040518091039020600001805490506106319190611fd9565b8154811061064257610641611ec6565b5b9060005260206000200160028360405161065c9190611d76565b9081526020016040518091039020600001828154811061067f5761067e611ec6565b5b9060005260206000200190805461069590611e94565b6106a0929190611424565b505b80806106ad9061200d565b915050610523565b506002816040516106c69190611d76565b90815260200160405180910390206000018054806106e7576106e6612056565b5b60019003818190600052602060002001600061070391906114b1565b90556001826040516107159190611d76565b90815260200160405180910390206000808201600061073491906114b1565b60018201600061074491906114b1565b60028201600061075491906114b1565b60038201600061076491906114b1565b60048201600061077491906114b1565b60058201600061078491906114b1565b60068201600061079491906114b1565b6007820160006107a491906114b1565b50505050565b6107b26114f1565b6107bb82611313565b156107fb576040517f08c379a00000000000000000000000000000000000000000000000000000000081526004016107f290611e45565b60405180910390fd5b60018260405161080b9190611d76565b90815260200160405180910390206040518061010001604052908160008201805461083590611e94565b80601f016020809104026020016040519081016040528092919081815260200182805461086190611e94565b80156108ae5780601f10610883576101008083540402835291602001916108ae565b820191906000526020600020905b81548152906001019060200180831161089157829003601f168201915b505050505081526020016001820180546108c790611e94565b80601f01602080910402602001604051908101604052809291908181526020018280546108f390611e94565b80156109405780601f1061091557610100808354040283529160200191610940565b820191906000526020600020905b81548152906001019060200180831161092357829003601f168201915b5050505050815260200160028201805461095990611e94565b80601f016020809104026020016040519081016040528092919081815260200182805461098590611e94565b80156109d25780601f106109a7576101008083540402835291602001916109d2565b820191906000526020600020905b8154815290600101906020018083116109b557829003601f168201915b505050505081526020016003820180546109eb90611e94565b80601f0160208091040260200160405190810160405280929190818152602001828054610a1790611e94565b8015610a645780601f10610a3957610100808354040283529160200191610a64565b820191906000526020600020905b815481529060010190602001808311610a4757829003601f168201915b50505050508152602001600482018054610a7d90611e94565b80601f0160208091040260200160405190810160405280929190818152602001828054610aa990611e94565b8015610af65780601f10610acb57610100808354040283529160200191610af6565b820191906000526020600020905b815481529060010190602001808311610ad957829003601f168201915b50505050508152602001600582018054610b0f90611e94565b80601f0160208091040260200160405190810160405280929190818152602001828054610b3b90611e94565b8015610b885780601f10610b5d57610100808354040283529160200191610b88565b820191906000526020600020905b815481529060010190602001808311610b6b57829003601f168201915b50505050508152602001600682018054610ba190611e94565b80601f0160208091040260200160405190810160405280929190818152602001828054610bcd90611e94565b8015610c1a5780601f10610bef57610100808354040283529160200191610c1a565b820191906000526020600020905b815481529060010190602001808311610bfd57829003601f168201915b50505050508152602001600782018054610c3390611e94565b80601f0160208091040260200160405190810160405280929190818152602001828054610c5f90611e94565b8015610cac5780601f10610c8157610100808354040283529160200191610cac565b820191906000526020600020905b815481529060010190602001808311610c8f57829003601f168201915b5050505050815250509050919050565b610cc4611536565b82604051602001610cd59190611d76565b60405160208183030381529060405280519060200120600084604051610cfb9190611d76565b9081526020016040518091039020600001604051602001610d1c9190611f89565b60405160208183030381529060405280519060200120148015610daa575081604051602001610d4b9190611d76565b60405160208183030381529060405280519060200120600084604051610d719190611d76565b9081526020016040518091039020600101604051602001610d929190611f89565b60405160208183030381529060405280519060200120145b610de9576040517f08c379a0000000000000000000000000000000000000000000000000000000008152600401610de0906120d1565b60405180910390fd5b600083604051610df99190611d76565b90815260200160405180910390206040518060c0016040529081600082018054610e2290611e94565b80601f0160208091040260200160405190810160405280929190818152602001828054610e4e90611e94565b8015610e9b5780601f10610e7057610100808354040283529160200191610e9b565b820191906000526020600020905b815481529060010190602001808311610e7e57829003601f168201915b50505050508152602001600182018054610eb490611e94565b80601f0160208091040260200160405190810160405280929190818152602001828054610ee090611e94565b8015610f2d5780601f10610f0257610100808354040283529160200191610f2d565b820191906000526020600020905b815481529060010190602001808311610f1057829003601f168201915b50505050508152602001600282018054610f4690611e94565b80601f0160208091040260200160405190810160405280929190818152602001828054610f7290611e94565b8015610fbf5780601f10610f9457610100808354040283529160200191610fbf565b820191906000526020600020905b815481529060010190602001808311610fa257829003601f168201915b50505050508152602001600382018054610fd890611e94565b80601f016020809104026020016040519081016040528092919081815260200182805461100490611e94565b80156110515780601f1061102657610100808354040283529160200191611051565b820191906000526020600020905b81548152906001019060200180831161103457829003601f168201915b5050505050815260200160048201805461106a90611e94565b80601f016020809104026020016040519081016040528092919081815260200182805461109690611e94565b80156110e35780601f106110b8576101008083540402835291602001916110e3565b820191906000526020600020905b8154815290600101906020018083116110c657829003601f168201915b505050505081526020016005820180546110fc90611e94565b80601f016020809104026020016040519081016040528092919081815260200182805461112890611e94565b80156111755780601f1061114a57610100808354040283529160200191611175565b820191906000526020600020905b81548152906001019060200180831161115857829003601f168201915b505050505081525050905092915050565b60606111918261135d565b156111d1576040517f08c379a00000000000000000000000000000000000000000000000000000000081526004016111c89061213d565b60405180910390fd5b6002826040516111e19190611d76565b9081526020016040518091039020600001805480602002602001604051908101604052809291908181526020016000905b828210156112be57838290600052602060002001805461123190611e94565b80601f016020809104026020016040519081016040528092919081815260200182805461125d90611e94565b80156112aa5780601f1061127f576101008083540402835291602001916112aa565b820191906000526020600020905b81548152906001019060200180831161128d57829003601f168201915b505050505081526020019060010190611212565b505050509050919050565b6000806000836040516112dc9190611d76565b908152602001604051809103902060000180546112f890611e94565b90501415611309576001905061130e565b600090505b919050565b6000806001836040516113269190611d76565b9081526020016040518091039020600001805461134290611e94565b905014156113535760019050611358565b600090505b919050565b6000806002836040516113709190611d76565b90815260200160405180910390206000018054905014156113945760019050611399565b600090505b919050565b8280546113aa90611e94565b90600052602060002090601f0160209004810192826113cc5760008555611413565b82601f106113e557805160ff1916838001178555611413565b82800160010185558215611413579182015b828111156114125782518255916020019190600101906113f7565b5b509050611420919061156c565b5090565b82805461143090611e94565b90600052602060002090601f01602090048101928261145257600085556114a0565b82601f1061146357805485556114a0565b828001600101855582156114a057600052602060002091601f016020900482015b8281111561149f578254825591600101919060010190611484565b5b5090506114ad919061156c565b5090565b5080546114bd90611e94565b6000825580601f106114cf57506114ee565b601f0160209004906000526020600020908101906114ed919061156c565b5b50565b60405180610100016040528060608152602001606081526020016060815260200160608152602001606081526020016060815260200160608152602001606081525090565b6040518060c001604052806060815260200160608152602001606081526020016060815260200160608152602001606081525090565b5b8082111561158557600081600090555060010161156d565b5090565b6000604051905090565b600080fd5b600080fd5b600080fd5b600080fd5b6000601f19601f8301169050919050565b7f4e487b7100000000000000000000000000000000000000000000000000000000600052604160045260246000fd5b6115f0826115a7565b810181811067ffffffffffffffff8211171561160f5761160e6115b8565b5b80604052505050565b6000611622611589565b905061162e82826115e7565b919050565b600067ffffffffffffffff82111561164e5761164d6115b8565b5b611657826115a7565b9050602081019050919050565b82818337600083830152505050565b600061168661168184611633565b611618565b9050828152602081018484840111156116a2576116a16115a2565b5b6116ad848285611664565b509392505050565b600082601f8301126116ca576116c961159d565b5b81356116da848260208601611673565b91505092915050565b60008060008060008060c08789031215611700576116ff611593565b5b600087013567ffffffffffffffff81111561171e5761171d611598565b5b61172a89828a016116b5565b965050602087013567ffffffffffffffff81111561174b5761174a611598565b5b61175789828a016116b5565b955050604087013567ffffffffffffffff81111561177857611777611598565b5b61178489828a016116b5565b945050606087013567ffffffffffffffff8111156117a5576117a4611598565b5b6117b189828a016116b5565b935050608087013567ffffffffffffffff8111156117d2576117d1611598565b5b6117de89828a016116b5565b92505060a087013567ffffffffffffffff8111156117ff576117fe611598565b5b61180b89828a016116b5565b9150509295509295509295565b60008060006060848603121561183157611830611593565b5b600084013567ffffffffffffffff81111561184f5761184e611598565b5b61185b868287016116b5565b935050602084013567ffffffffffffffff81111561187c5761187b611598565b5b611888868287016116b5565b925050604084013567ffffffffffffffff8111156118a9576118a8611598565b5b6118b5868287016116b5565b9150509250925092565b6000602082840312156118d5576118d4611593565b5b600082013567ffffffffffffffff8111156118f3576118f2611598565b5b6118ff848285016116b5565b91505092915050565b600081519050919050565b600082825260208201905092915050565b60005b83811015611942578082015181840152602081019050611927565b83811115611951576000848401525b50505050565b600061196282611908565b61196c8185611913565b935061197c818560208601611924565b611985816115a7565b840191505092915050565b60006101008301600083015184820360008601526119ae8282611957565b915050602083015184820360208601526119c88282611957565b915050604083015184820360408601526119e28282611957565b915050606083015184820360608601526119fc8282611957565b91505060808301518482036080860152611a168282611957565b91505060a083015184820360a0860152611a308282611957565b91505060c083015184820360c0860152611a4a8282611957565b91505060e083015184820360e0860152611a648282611957565b9150508091505092915050565b60006020820190508181036000830152611a8b8184611990565b905092915050565b60008060408385031215611aaa57611aa9611593565b5b600083013567ffffffffffffffff811115611ac857611ac7611598565b5b611ad4858286016116b5565b925050602083013567ffffffffffffffff811115611af557611af4611598565b5b611b01858286016116b5565b9150509250929050565b600060c0830160008301518482036000860152611b288282611957565b91505060208301518482036020860152611b428282611957565b91505060408301518482036040860152611b5c8282611957565b91505060608301518482036060860152611b768282611957565b91505060808301518482036080860152611b908282611957565b91505060a083015184820360a0860152611baa8282611957565b9150508091505092915050565b60006020820190508181036000830152611bd18184611b0b565b905092915050565b600081519050919050565b600082825260208201905092915050565b6000819050602082019050919050565b6000611c118383611957565b905092915050565b6000602082019050919050565b6000611c3182611bd9565b611c3b8185611be4565b935083602082028501611c4d85611bf5565b8060005b85811015611c895784840389528151611c6a8582611c05565b9450611c7583611c19565b925060208a01995050600181019050611c51565b50829750879550505050505092915050565b60006020820190508181036000830152611cb58184611c26565b905092915050565b600082825260208201905092915050565b7f456d61696c20616c726561647920210000000000000000000000000000000000600082015250565b6000611d04600f83611cbd565b9150611d0f82611cce565b602082019050919050565b60006020820190508181036000830152611d3381611cf7565b9050919050565b600081905092915050565b6000611d5082611908565b611d5a8185611d3a565b9350611d6a818560208601611924565b80840191505092915050565b6000611d828284611d45565b915081905092915050565b7f436c69656e7420616c7265616479202100000000000000000000000000000000600082015250565b6000611dc3601083611cbd565b9150611dce82611d8d565b602082019050919050565b60006020820190508181036000830152611df281611db6565b9050919050565b7f436c69656e74206e6f7420666f756e6420210000000000000000000000000000600082015250565b6000611e2f601283611cbd565b9150611e3a82611df9565b602082019050919050565b60006020820190508181036000830152611e5e81611e22565b9050919050565b7f4e487b7100000000000000000000000000000000000000000000000000000000600052602260045260246000fd5b60006002820490506001821680611eac57607f821691505b60208210811415611ec057611ebf611e65565b5b50919050565b7f4e487b7100000000000000000000000000000000000000000000000000000000600052603260045260246000fd5b60008190508160005260206000209050919050565b60008154611f1781611e94565b611f218186611d3a565b94506001821660008114611f3c5760018114611f4d57611f80565b60ff19831686528186019350611f80565b611f5685611ef5565b60005b83811015611f7857815481890152600182019150602081019050611f59565b838801955050505b50505092915050565b6000611f958284611f0a565b915081905092915050565b6000819050919050565b7f4e487b7100000000000000000000000000000000000000000000000000000000600052601160045260246000fd5b6000611fe482611fa0565b9150611fef83611fa0565b92508282101561200257612001611faa565b5b828203905092915050565b600061201882611fa0565b91507fffffffffffffffffffffffffffffffffffffffffffffffffffffffffffffffff82141561204b5761204a611faa565b5b600182019050919050565b7f4e487b7100000000000000000000000000000000000000000000000000000000600052603160045260246000fd5b7f456d61696c206f722070617373776f726420697320696e636f72726563742021600082015250565b60006120bb602083611cbd565b91506120c682612085565b602082019050919050565b600060208201905081810360008301526120ea816120ae565b9050919050565b7f436c69656e7473206f662075736572206e6f7420666f756e6420210000000000600082015250565b6000612127601b83611cbd565b9150612132826120f1565b602082019050919050565b600060208201905081810360008301526121568161211a565b905091905056fea26469706673582212206bc35e8d1bd38af37619cd8a6f957e3e0cd0ff541b9b9b342a28a25682cfefca64736f6c63430008090033",
  "immutableReferences": {},
  "source": "// SPDX-License-Identifier: MIT\npragma solidity >=0.8.0 <0.9.0;\n\ncontract iam {\n    struct Users {\n        string email;\n        string password;\n        string firstname;\n        string surname;\n        string birthdate;\n        string gender;\n    }\n\n    struct Clients {\n        string client_id;\n        string email;\n        string clinet_secret;\n        string client_name;\n        string client_logo;\n        string client_description;\n        string client_homepage;\n        string redirect_uri;\n    }\n\n    struct Clients_Of_User {\n        string[] client_id;\n    }\n\n    mapping(string => Users) users;\n    mapping(string => Clients) clients;\n    mapping(string => Clients_Of_User) clients_of_user;\n\n    function createUser(\n        string memory _email,\n        string memory _password,\n        string memory _firstname,\n        string memory _surname,\n        string memory _birthdate,\n        string memory _gender\n    ) public {\n        require(isUser(_email), \"Email already !\");\n        users[_email].email = _email;\n        users[_email].password = _password;\n        users[_email].firstname = _firstname;\n        users[_email].surname = _surname;\n        users[_email].birthdate = _birthdate;\n        users[_email].gender = _gender;\n    }\n\n    function getUser(string memory _email, string memory _password)\n        public\n        view\n        returns (Users memory)\n    {\n        require(\n            keccak256(abi.encodePacked(users[_email].email)) ==\n                keccak256(abi.encodePacked(_email)) &&\n                keccak256(abi.encodePacked(users[_email].password)) ==\n                keccak256(abi.encodePacked(_password)),\n            \"Email or password is incorrect !\"\n        );\n\n        return users[_email];\n    }\n\n    function isUser(string memory _email) private view returns (bool) {\n        if (bytes(users[_email].email).length == 0) {\n            return true;\n        } else {\n            return false;\n        }\n    }\n\n    function createClient(\n        string memory _client_id,\n        string memory _client_name,\n        string memory _email\n    ) public {\n        require(isClient(_client_id), \"Client already !\");\n        clients[_client_id].client_id = _client_id;\n        clients[_client_id].client_name = _client_name;\n        clients[_client_id].email = _email;\n        clients_of_user[_email].client_id.push(_client_id);\n    }\n\n    function getClient(string memory _client_id)\n        public\n        view\n        returns (Clients memory)\n    {\n        require(!isClient(_client_id), \"Client not found !\");\n        return clients[_client_id];\n    }\n\n    function getClients_of_User(string memory _email)\n        public\n        view\n        returns (string[] memory)\n    {\n        require(!isClients_of_User(_email), \"Clients of user not found !\");\n        return clients_of_user[_email].client_id;\n    }\n\n    function delClient(string memory _client_id) public {\n        require(!isClient(_client_id), \"Client not found !\");\n        string memory email = clients[_client_id].email;\n        for (uint256 i = 0; i < clients_of_user[email].client_id.length; i++) {\n            if (\n                keccak256(\n                    abi.encodePacked(clients_of_user[email].client_id[i])\n                ) == keccak256(abi.encodePacked(_client_id))\n            ) {\n                clients_of_user[email].client_id[i] = clients_of_user[email]\n                    .client_id[clients_of_user[email].client_id.length - 1];\n            }\n        }\n        clients_of_user[email].client_id.pop();\n        delete clients[_client_id];\n    }\n\n    function isClient(string memory _client_id) private view returns (bool) {\n        if (bytes(clients[_client_id].client_id).length == 0) {\n            return true;\n        } else {\n            return false;\n        }\n    }\n\n    function isClients_of_User(string memory _email)\n        private\n        view\n        returns (bool)\n    {\n        if (clients_of_user[_email].client_id.length == 0) {\n            return true;\n        } else {\n            return false;\n        }\n    }\n}\n",
  "sourcePath": "/Users/kritsanawipankhet/Documents/github/CE64-41/smart_contract/iam/contracts/iam.sol",
  "compiler": {
    "name": "solc",
    "version": "0.8.9+commit.e5eed63a.Emscripten.clang"
  },
  "schemaVersion": "3.4.3",
  "updatedAt": "2021-10-20T23:07:46.765Z",
  "devdoc": {
    "kind": "dev",
    "methods": {},
    "version": 1
  },
  "userdoc": {
    "kind": "user",
    "methods": {},
    "version": 1
  }
}