{
  "contractName": "iam",
  "abi": [
    {
      "inputs": [],
      "name": "getTimestamp",
      "outputs": [
        {
          "internalType": "uint256",
          "name": "",
          "type": "uint256"
        }
      ],
      "stateMutability": "view",
      "type": "function",
      "constant": true
    },
    {
      "inputs": [
        {
          "internalType": "string",
          "name": "_username",
          "type": "string"
        },
        {
          "internalType": "string",
          "name": "_email",
          "type": "string"
        },
        {
          "internalType": "string",
          "name": "_password",
          "type": "string"
        },
        {
          "internalType": "string",
          "name": "_firstname",
          "type": "string"
        },
        {
          "internalType": "string",
          "name": "_lastname",
          "type": "string"
        },
        {
          "internalType": "string",
          "name": "_birthdate",
          "type": "string"
        },
        {
          "internalType": "string",
          "name": "_phonenumber",
          "type": "string"
        }
      ],
      "name": "createUser",
      "outputs": [],
      "stateMutability": "nonpayable",
      "type": "function"
    },
    {
      "inputs": [
        {
          "internalType": "string",
          "name": "_username",
          "type": "string"
        },
        {
          "internalType": "string",
          "name": "_password",
          "type": "string"
        }
      ],
      "name": "getUser",
      "outputs": [
        {
          "components": [
            {
              "internalType": "string",
              "name": "username",
              "type": "string"
            },
            {
              "internalType": "string",
              "name": "email",
              "type": "string"
            },
            {
              "internalType": "string",
              "name": "password",
              "type": "string"
            },
            {
              "internalType": "string",
              "name": "firstname",
              "type": "string"
            },
            {
              "internalType": "string",
              "name": "lastname",
              "type": "string"
            },
            {
              "internalType": "string",
              "name": "birthdate",
              "type": "string"
            },
            {
              "internalType": "string",
              "name": "phonenumber",
              "type": "string"
            },
            {
              "internalType": "uint256",
              "name": "timestamp",
              "type": "uint256"
            }
          ],
          "internalType": "struct iam.Users",
          "name": "",
          "type": "tuple"
        }
      ],
      "stateMutability": "view",
      "type": "function",
      "constant": true
    },
    {
      "inputs": [
        {
          "internalType": "string",
          "name": "_client_id",
          "type": "string"
        },
        {
          "internalType": "string",
          "name": "_client_name",
          "type": "string"
        },
        {
          "internalType": "string",
          "name": "_client_secret_key",
          "type": "string"
        },
        {
          "internalType": "string",
          "name": "_client_logo",
          "type": "string"
        },
        {
          "internalType": "string",
          "name": "_client_description",
          "type": "string"
        },
        {
          "internalType": "string",
          "name": "_client_homepage",
          "type": "string"
        },
        {
          "internalType": "string",
          "name": "_redirect_uri",
          "type": "string"
        },
        {
          "internalType": "string",
          "name": "_email",
          "type": "string"
        }
      ],
      "name": "createClient",
      "outputs": [],
      "stateMutability": "nonpayable",
      "type": "function"
    },
    {
      "inputs": [
        {
          "internalType": "string",
          "name": "_client_id",
          "type": "string"
        }
      ],
      "name": "getClientById",
      "outputs": [
        {
          "components": [
            {
              "internalType": "string",
              "name": "id",
              "type": "string"
            },
            {
              "internalType": "string",
              "name": "client_secret_key",
              "type": "string"
            },
            {
              "internalType": "string",
              "name": "client_name",
              "type": "string"
            },
            {
              "internalType": "string",
              "name": "client_logo",
              "type": "string"
            },
            {
              "internalType": "string",
              "name": "client_description",
              "type": "string"
            },
            {
              "internalType": "string",
              "name": "client_homepage",
              "type": "string"
            },
            {
              "internalType": "string",
              "name": "redirect_uri",
              "type": "string"
            },
            {
              "internalType": "string",
              "name": "client_owner",
              "type": "string"
            },
            {
              "internalType": "uint256",
              "name": "timestamp",
              "type": "uint256"
            }
          ],
          "internalType": "struct iam.Clients",
          "name": "",
          "type": "tuple"
        }
      ],
      "stateMutability": "view",
      "type": "function",
      "constant": true
    },
    {
      "inputs": [
        {
          "internalType": "string",
          "name": "_email",
          "type": "string"
        }
      ],
      "name": "getClientsOfUser",
      "outputs": [
        {
          "internalType": "string[]",
          "name": "",
          "type": "string[]"
        }
      ],
      "stateMutability": "view",
      "type": "function",
      "constant": true
    },
    {
      "inputs": [
        {
          "internalType": "string",
          "name": "_client_id",
          "type": "string"
        }
      ],
      "name": "delClient",
      "outputs": [],
      "stateMutability": "nonpayable",
      "type": "function"
    },
    {
      "inputs": [
        {
          "internalType": "string",
          "name": "_client_id",
          "type": "string"
        },
        {
          "internalType": "string",
          "name": "_email",
          "type": "string"
        }
      ],
      "name": "grantAuthorization",
      "outputs": [
        {
          "internalType": "string",
          "name": "",
          "type": "string"
        }
      ],
      "stateMutability": "view",
      "type": "function",
      "constant": true
    }
  ],
  "bytecode": "0x6080604052737002aff9b93bf19a9ee547254d185aaae1d266426000806101000a81548173ffffffffffffffffffffffffffffffffffffffff021916908373ffffffffffffffffffffffffffffffffffffffff16021790555034801561006457600080fd5b50612a50806100746000396000f3fe608060405234801561001057600080fd5b50600436106100885760003560e01c80636ae5134c1161005b5780636ae5134c1461011357806383e6858f1461012f5780638c510ab01461015f57806398c2d2051461018f57610088565b8063188ec3561461008d5780634c4d7c5a146100ab57806359e14281146100db5780635abb69e1146100f7575b600080fd5b6100956101bf565b6040516100a29190611b90565b60405180910390f35b6100c560048036038101906100c09190611d05565b6101c7565b6040516100d29190611edb565b60405180910390f35b6100f560048036038101906100f09190611efd565b610771565b005b610111600480360381019061010c9190612093565b610acb565b005b61012d60048036038101906101289190611d05565b610d4a565b005b610149600480360381019061014491906121f9565b611161565b604051610156919061234b565b60405180910390f35b61017960048036038101906101749190611d05565b6116c8565b604051610186919061242f565b60405180910390f35b6101a960048036038101906101a491906121f9565b611899565b6040516101b6919061249b565b60405180910390f35b600042905090565b6101cf611976565b60008054906101000a900473ffffffffffffffffffffffffffffffffffffffff1673ffffffffffffffffffffffffffffffffffffffff163373ffffffffffffffffffffffffffffffffffffffff161461025d576040517f08c379a000000000000000000000000000000000000000000000000000000000815260040161025490612509565b60405180910390fd5b610266826118a1565b156102a6576040517f08c379a000000000000000000000000000000000000000000000000000000000815260040161029d90612575565b60405180910390fd5b6002826040516102b691906125d1565b9081526020016040518091039020604051806101200160405290816000820180546102e090612617565b80601f016020809104026020016040519081016040528092919081815260200182805461030c90612617565b80156103595780601f1061032e57610100808354040283529160200191610359565b820191906000526020600020905b81548152906001019060200180831161033c57829003601f168201915b5050505050815260200160018201805461037290612617565b80601f016020809104026020016040519081016040528092919081815260200182805461039e90612617565b80156103eb5780601f106103c0576101008083540402835291602001916103eb565b820191906000526020600020905b8154815290600101906020018083116103ce57829003601f168201915b5050505050815260200160028201805461040490612617565b80601f016020809104026020016040519081016040528092919081815260200182805461043090612617565b801561047d5780601f106104525761010080835404028352916020019161047d565b820191906000526020600020905b81548152906001019060200180831161046057829003601f168201915b5050505050815260200160038201805461049690612617565b80601f01602080910402602001604051908101604052809291908181526020018280546104c290612617565b801561050f5780601f106104e45761010080835404028352916020019161050f565b820191906000526020600020905b8154815290600101906020018083116104f257829003601f168201915b5050505050815260200160048201805461052890612617565b80601f016020809104026020016040519081016040528092919081815260200182805461055490612617565b80156105a15780601f10610576576101008083540402835291602001916105a1565b820191906000526020600020905b81548152906001019060200180831161058457829003601f168201915b505050505081526020016005820180546105ba90612617565b80601f01602080910402602001604051908101604052809291908181526020018280546105e690612617565b80156106335780601f1061060857610100808354040283529160200191610633565b820191906000526020600020905b81548152906001019060200180831161061657829003601f168201915b5050505050815260200160068201805461064c90612617565b80601f016020809104026020016040519081016040528092919081815260200182805461067890612617565b80156106c55780601f1061069a576101008083540402835291602001916106c5565b820191906000526020600020905b8154815290600101906020018083116106a857829003601f168201915b505050505081526020016007820180546106de90612617565b80601f016020809104026020016040519081016040528092919081815260200182805461070a90612617565b80156107575780601f1061072c57610100808354040283529160200191610757565b820191906000526020600020905b81548152906001019060200180831161073a57829003601f168201915b505050505081526020016008820154815250509050919050565b60008054906101000a900473ffffffffffffffffffffffffffffffffffffffff1673ffffffffffffffffffffffffffffffffffffffff163373ffffffffffffffffffffffffffffffffffffffff16146107ff576040517f08c379a00000000000000000000000000000000000000000000000000000000081526004016107f690612509565b60405180910390fd5b610808816118eb565b15610848576040517f08c379a000000000000000000000000000000000000000000000000000000000815260040161083f90612695565b60405180910390fd5b610851886118a1565b610890576040517f08c379a000000000000000000000000000000000000000000000000000000000815260040161088790612701565b60405180910390fd5b876002896040516108a191906125d1565b908152602001604051809103902060000190805190602001906108c59291906119c2565b50806002896040516108d791906125d1565b908152602001604051809103902060070190805190602001906108fb9291906119c2565b508660028960405161090d91906125d1565b908152602001604051809103902060020190805190602001906109319291906119c2565b508560028960405161094391906125d1565b908152602001604051809103902060010190805190602001906109679291906119c2565b508460028960405161097991906125d1565b9081526020016040518091039020600301908051906020019061099d9291906119c2565b50836002896040516109af91906125d1565b908152602001604051809103902060040190805190602001906109d39291906119c2565b50826002896040516109e591906125d1565b90815260200160405180910390206005019080519060200190610a099291906119c2565b5081600289604051610a1b91906125d1565b90815260200160405180910390206006019080519060200190610a3f9291906119c2565b5042600289604051610a5191906125d1565b908152602001604051809103902060080181905550600381604051610a7691906125d1565b908152602001604051809103902060000188908060018154018082558091505060019003906000526020600020016000909190919091509080519060200190610ac09291906119c2565b505050505050505050565b60008054906101000a900473ffffffffffffffffffffffffffffffffffffffff1673ffffffffffffffffffffffffffffffffffffffff163373ffffffffffffffffffffffffffffffffffffffff1614610b59576040517f08c379a0000000000000000000000000000000000000000000000000000000008152600401610b5090612509565b60405180910390fd5b610b62876118eb565b610ba1576040517f08c379a0000000000000000000000000000000000000000000000000000000008152600401610b989061276d565b60405180910390fd5b86600188604051610bb291906125d1565b90815260200160405180910390206000019080519060200190610bd69291906119c2565b5085600188604051610be891906125d1565b90815260200160405180910390206001019080519060200190610c0c9291906119c2565b5084600188604051610c1e91906125d1565b90815260200160405180910390206002019080519060200190610c429291906119c2565b5083600188604051610c5491906125d1565b90815260200160405180910390206003019080519060200190610c789291906119c2565b5082600188604051610c8a91906125d1565b90815260200160405180910390206004019080519060200190610cae9291906119c2565b5081600188604051610cc091906125d1565b90815260200160405180910390206005019080519060200190610ce49291906119c2565b5080600188604051610cf691906125d1565b90815260200160405180910390206006019080519060200190610d1a9291906119c2565b5042600188604051610d2c91906125d1565b90815260200160405180910390206007018190555050505050505050565b60008054906101000a900473ffffffffffffffffffffffffffffffffffffffff1673ffffffffffffffffffffffffffffffffffffffff163373ffffffffffffffffffffffffffffffffffffffff1614610dd8576040517f08c379a0000000000000000000000000000000000000000000000000000000008152600401610dcf90612509565b60405180910390fd5b610de1816118a1565b15610e21576040517f08c379a0000000000000000000000000000000000000000000000000000000008152600401610e1890612575565b60405180910390fd5b6000600282604051610e3391906125d1565b90815260200160405180910390206007018054610e4f90612617565b80601f0160208091040260200160405190810160405280929190818152602001828054610e7b90612617565b8015610ec85780601f10610e9d57610100808354040283529160200191610ec8565b820191906000526020600020905b815481529060010190602001808311610eab57829003601f168201915b5050505050905060005b600382604051610ee291906125d1565b9081526020016040518091039020600001805490508110156110645782604051602001610f0f91906125d1565b60405160208183030381529060405280519060200120600383604051610f3591906125d1565b90815260200160405180910390206000018281548110610f5857610f5761278d565b5b90600052602060002001604051602001610f729190612850565b60405160208183030381529060405280519060200120141561105157600382604051610f9e91906125d1565b90815260200160405180910390206000016001600384604051610fc191906125d1565b908152602001604051809103902060000180549050610fe09190612896565b81548110610ff157610ff061278d565b5b9060005260206000200160038360405161100b91906125d1565b9081526020016040518091039020600001828154811061102e5761102d61278d565b5b9060005260206000200190805461104490612617565b61104f929190611a48565b505b808061105c906128ca565b915050610ed2565b5060038160405161107591906125d1565b908152602001604051809103902060000180548061109657611095612913565b5b6001900381819060005260206000200160006110b29190611ad5565b90556002826040516110c491906125d1565b9081526020016040518091039020600080820160006110e39190611ad5565b6001820160006110f39190611ad5565b6002820160006111039190611ad5565b6003820160006111139190611ad5565b6004820160006111239190611ad5565b6005820160006111339190611ad5565b6006820160006111439190611ad5565b6007820160006111539190611ad5565b600882016000905550505050565b611169611b15565b8260405160200161117a91906125d1565b604051602081830303815290604052805190602001206001846040516111a091906125d1565b90815260200160405180910390206000016040516020016111c19190612850565b6040516020818303038152906040528051906020012014801561124f5750816040516020016111f091906125d1565b6040516020818303038152906040528051906020012060018460405161121691906125d1565b90815260200160405180910390206002016040516020016112379190612850565b60405160208183030381529060405280519060200120145b61128e576040517f08c379a00000000000000000000000000000000000000000000000000000000081526004016112859061298e565b60405180910390fd5b60018360405161129e91906125d1565b9081526020016040518091039020604051806101000160405290816000820180546112c890612617565b80601f01602080910402602001604051908101604052809291908181526020018280546112f490612617565b80156113415780601f1061131657610100808354040283529160200191611341565b820191906000526020600020905b81548152906001019060200180831161132457829003601f168201915b5050505050815260200160018201805461135a90612617565b80601f016020809104026020016040519081016040528092919081815260200182805461138690612617565b80156113d35780601f106113a8576101008083540402835291602001916113d3565b820191906000526020600020905b8154815290600101906020018083116113b657829003601f168201915b505050505081526020016002820180546113ec90612617565b80601f016020809104026020016040519081016040528092919081815260200182805461141890612617565b80156114655780601f1061143a57610100808354040283529160200191611465565b820191906000526020600020905b81548152906001019060200180831161144857829003601f168201915b5050505050815260200160038201805461147e90612617565b80601f01602080910402602001604051908101604052809291908181526020018280546114aa90612617565b80156114f75780601f106114cc576101008083540402835291602001916114f7565b820191906000526020600020905b8154815290600101906020018083116114da57829003601f168201915b5050505050815260200160048201805461151090612617565b80601f016020809104026020016040519081016040528092919081815260200182805461153c90612617565b80156115895780601f1061155e57610100808354040283529160200191611589565b820191906000526020600020905b81548152906001019060200180831161156c57829003601f168201915b505050505081526020016005820180546115a290612617565b80601f01602080910402602001604051908101604052809291908181526020018280546115ce90612617565b801561161b5780601f106115f05761010080835404028352916020019161161b565b820191906000526020600020905b8154815290600101906020018083116115fe57829003601f168201915b5050505050815260200160068201805461163490612617565b80601f016020809104026020016040519081016040528092919081815260200182805461166090612617565b80156116ad5780601f10611682576101008083540402835291602001916116ad565b820191906000526020600020905b81548152906001019060200180831161169057829003601f168201915b50505050508152602001600782015481525050905092915050565b606060008054906101000a900473ffffffffffffffffffffffffffffffffffffffff1673ffffffffffffffffffffffffffffffffffffffff163373ffffffffffffffffffffffffffffffffffffffff1614611758576040517f08c379a000000000000000000000000000000000000000000000000000000000815260040161174f90612509565b60405180910390fd5b61176182611935565b156117a1576040517f08c379a0000000000000000000000000000000000000000000000000000000008152600401611798906129fa565b60405180910390fd5b6003826040516117b191906125d1565b9081526020016040518091039020600001805480602002602001604051908101604052809291908181526020016000905b8282101561188e57838290600052602060002001805461180190612617565b80601f016020809104026020016040519081016040528092919081815260200182805461182d90612617565b801561187a5780601f1061184f5761010080835404028352916020019161187a565b820191906000526020600020905b81548152906001019060200180831161185d57829003601f168201915b5050505050815260200190600101906117e2565b505050509050919050565b606092915050565b6000806002836040516118b491906125d1565b908152602001604051809103902060000180546118d090612617565b905014156118e157600190506118e6565b600090505b919050565b6000806001836040516118fe91906125d1565b9081526020016040518091039020600001805461191a90612617565b9050141561192b5760019050611930565b600090505b919050565b60008060038360405161194891906125d1565b908152602001604051809103902060000180549050141561196c5760019050611971565b600090505b919050565b6040518061012001604052806060815260200160608152602001606081526020016060815260200160608152602001606081526020016060815260200160608152602001600081525090565b8280546119ce90612617565b90600052602060002090601f0160209004810192826119f05760008555611a37565b82601f10611a0957805160ff1916838001178555611a37565b82800160010185558215611a37579182015b82811115611a36578251825591602001919060010190611a1b565b5b509050611a449190611b5a565b5090565b828054611a5490612617565b90600052602060002090601f016020900481019282611a765760008555611ac4565b82601f10611a875780548555611ac4565b82800160010185558215611ac457600052602060002091601f016020900482015b82811115611ac3578254825591600101919060010190611aa8565b5b509050611ad19190611b5a565b5090565b508054611ae190612617565b6000825580601f10611af35750611b12565b601f016020900490600052602060002090810190611b119190611b5a565b5b50565b60405180610100016040528060608152602001606081526020016060815260200160608152602001606081526020016060815260200160608152602001600081525090565b5b80821115611b73576000816000905550600101611b5b565b5090565b6000819050919050565b611b8a81611b77565b82525050565b6000602082019050611ba56000830184611b81565b92915050565b6000604051905090565b600080fd5b600080fd5b600080fd5b600080fd5b6000601f19601f8301169050919050565b7f4e487b7100000000000000000000000000000000000000000000000000000000600052604160045260246000fd5b611c1282611bc9565b810181811067ffffffffffffffff82111715611c3157611c30611bda565b5b80604052505050565b6000611c44611bab565b9050611c508282611c09565b919050565b600067ffffffffffffffff821115611c7057611c6f611bda565b5b611c7982611bc9565b9050602081019050919050565b82818337600083830152505050565b6000611ca8611ca384611c55565b611c3a565b905082815260208101848484011115611cc457611cc3611bc4565b5b611ccf848285611c86565b509392505050565b600082601f830112611cec57611ceb611bbf565b5b8135611cfc848260208601611c95565b91505092915050565b600060208284031215611d1b57611d1a611bb5565b5b600082013567ffffffffffffffff811115611d3957611d38611bba565b5b611d4584828501611cd7565b91505092915050565b600081519050919050565b600082825260208201905092915050565b60005b83811015611d88578082015181840152602081019050611d6d565b83811115611d97576000848401525b50505050565b6000611da882611d4e565b611db28185611d59565b9350611dc2818560208601611d6a565b611dcb81611bc9565b840191505092915050565b611ddf81611b77565b82525050565b6000610120830160008301518482036000860152611e038282611d9d565b91505060208301518482036020860152611e1d8282611d9d565b91505060408301518482036040860152611e378282611d9d565b91505060608301518482036060860152611e518282611d9d565b91505060808301518482036080860152611e6b8282611d9d565b91505060a083015184820360a0860152611e858282611d9d565b91505060c083015184820360c0860152611e9f8282611d9d565b91505060e083015184820360e0860152611eb98282611d9d565b915050610100830151611ed0610100860182611dd6565b508091505092915050565b60006020820190508181036000830152611ef58184611de5565b905092915050565b600080600080600080600080610100898b031215611f1e57611f1d611bb5565b5b600089013567ffffffffffffffff811115611f3c57611f3b611bba565b5b611f488b828c01611cd7565b985050602089013567ffffffffffffffff811115611f6957611f68611bba565b5b611f758b828c01611cd7565b975050604089013567ffffffffffffffff811115611f9657611f95611bba565b5b611fa28b828c01611cd7565b965050606089013567ffffffffffffffff811115611fc357611fc2611bba565b5b611fcf8b828c01611cd7565b955050608089013567ffffffffffffffff811115611ff057611fef611bba565b5b611ffc8b828c01611cd7565b94505060a089013567ffffffffffffffff81111561201d5761201c611bba565b5b6120298b828c01611cd7565b93505060c089013567ffffffffffffffff81111561204a57612049611bba565b5b6120568b828c01611cd7565b92505060e089013567ffffffffffffffff81111561207757612076611bba565b5b6120838b828c01611cd7565b9150509295985092959890939650565b600080600080600080600060e0888a0312156120b2576120b1611bb5565b5b600088013567ffffffffffffffff8111156120d0576120cf611bba565b5b6120dc8a828b01611cd7565b975050602088013567ffffffffffffffff8111156120fd576120fc611bba565b5b6121098a828b01611cd7565b965050604088013567ffffffffffffffff81111561212a57612129611bba565b5b6121368a828b01611cd7565b955050606088013567ffffffffffffffff81111561215757612156611bba565b5b6121638a828b01611cd7565b945050608088013567ffffffffffffffff81111561218457612183611bba565b5b6121908a828b01611cd7565b93505060a088013567ffffffffffffffff8111156121b1576121b0611bba565b5b6121bd8a828b01611cd7565b92505060c088013567ffffffffffffffff8111156121de576121dd611bba565b5b6121ea8a828b01611cd7565b91505092959891949750929550565b600080604083850312156122105761220f611bb5565b5b600083013567ffffffffffffffff81111561222e5761222d611bba565b5b61223a85828601611cd7565b925050602083013567ffffffffffffffff81111561225b5761225a611bba565b5b61226785828601611cd7565b9150509250929050565b600061010083016000830151848203600086015261228f8282611d9d565b915050602083015184820360208601526122a98282611d9d565b915050604083015184820360408601526122c38282611d9d565b915050606083015184820360608601526122dd8282611d9d565b915050608083015184820360808601526122f78282611d9d565b91505060a083015184820360a08601526123118282611d9d565b91505060c083015184820360c086015261232b8282611d9d565b91505060e083015161234060e0860182611dd6565b508091505092915050565b600060208201905081810360008301526123658184612271565b905092915050565b600081519050919050565b600082825260208201905092915050565b6000819050602082019050919050565b60006123a58383611d9d565b905092915050565b6000602082019050919050565b60006123c58261236d565b6123cf8185612378565b9350836020820285016123e185612389565b8060005b8581101561241d57848403895281516123fe8582612399565b9450612409836123ad565b925060208a019950506001810190506123e5565b50829750879550505050505092915050565b6000602082019050818103600083015261244981846123ba565b905092915050565b600082825260208201905092915050565b600061246d82611d4e565b6124778185612451565b9350612487818560208601611d6a565b61249081611bc9565b840191505092915050565b600060208201905081810360008301526124b58184612462565b905092915050565b7f4e6f20417574686f72697a6174696f6e20210000000000000000000000000000600082015250565b60006124f3601283612451565b91506124fe826124bd565b602082019050919050565b60006020820190508181036000830152612522816124e6565b9050919050565b7f436c69656e74206e6f7420666f756e6420210000000000000000000000000000600082015250565b600061255f601283612451565b915061256a82612529565b602082019050919050565b6000602082019050818103600083015261258e81612552565b9050919050565b600081905092915050565b60006125ab82611d4e565b6125b58185612595565b93506125c5818560208601611d6a565b80840191505092915050565b60006125dd82846125a0565b915081905092915050565b7f4e487b7100000000000000000000000000000000000000000000000000000000600052602260045260246000fd5b6000600282049050600182168061262f57607f821691505b60208210811415612643576126426125e8565b5b50919050565b7f55736572206e6f7420666f756e64202100000000000000000000000000000000600082015250565b600061267f601083612451565b915061268a82612649565b602082019050919050565b600060208201905081810360008301526126ae81612672565b9050919050565b7f436c69656e7420616c7265616479202100000000000000000000000000000000600082015250565b60006126eb601083612451565b91506126f6826126b5565b602082019050919050565b6000602082019050818103600083015261271a816126de565b9050919050565b7f456d61696c20697320616c726561647920210000000000000000000000000000600082015250565b6000612757601283612451565b915061276282612721565b602082019050919050565b600060208201905081810360008301526127868161274a565b9050919050565b7f4e487b7100000000000000000000000000000000000000000000000000000000600052603260045260246000fd5b60008190508160005260206000209050919050565b600081546127de81612617565b6127e88186612595565b94506001821660008114612803576001811461281457612847565b60ff19831686528186019350612847565b61281d856127bc565b60005b8381101561283f57815481890152600182019150602081019050612820565b838801955050505b50505092915050565b600061285c82846127d1565b915081905092915050565b7f4e487b7100000000000000000000000000000000000000000000000000000000600052601160045260246000fd5b60006128a182611b77565b91506128ac83611b77565b9250828210156128bf576128be612867565b5b828203905092915050565b60006128d582611b77565b91507fffffffffffffffffffffffffffffffffffffffffffffffffffffffffffffffff82141561290857612907612867565b5b600182019050919050565b7f4e487b7100000000000000000000000000000000000000000000000000000000600052603160045260246000fd5b7f456d61696c206f722070617373776f726420697320696e636f72726563742021600082015250565b6000612978602083612451565b915061298382612942565b602082019050919050565b600060208201905081810360008301526129a78161296b565b9050919050565b7f436c69656e7473206f662075736572206e6f7420666f756e6420210000000000600082015250565b60006129e4601b83612451565b91506129ef826129ae565b602082019050919050565b60006020820190508181036000830152612a13816129d7565b905091905056fea26469706673582212208e48a5a22fc9e5b6b83ccc14d4d625d1ce8241b78dbb857505d305372b9bc0e664736f6c634300080a0033",
  "immutableReferences": {},
  "source": "// SPDX-License-Identifier: MIT\r\npragma solidity >=0.8.0 <0.9.0;\r\n\r\ncontract iam {\r\n    address owner_address = 0x7002aFf9b93bf19A9EE547254d185aaAE1D26642;\r\n\r\n    modifier owner() {\r\n        require(msg.sender == owner_address, \"No Authorization !\");\r\n        _;\r\n    }\r\n\r\n    struct Users {\r\n        string username; // hash sha1\r\n        string email;\r\n        string password;\r\n        string firstname;\r\n        string lastname;\r\n        string birthdate;\r\n        string phonenumber;\r\n        uint256 timestamp;\r\n    }\r\n\r\n    struct Clients {\r\n        string id; // is client_id\r\n        string client_secret_key;\r\n        string client_name;\r\n        string client_logo;\r\n        string client_description;\r\n        string client_homepage;\r\n        string redirect_uri;\r\n        string client_owner; // email\r\n        uint256 timestamp;\r\n    }\r\n\r\n    struct ClientsOfUser {\r\n        string[] client_id; // 1 user to manny clients\r\n    }\r\n\r\n    struct Authorizations {\r\n        string id; // Key Id use client_id.email.\"auth\" hash sha256 algorithm\r\n        string authorization_code;\r\n        uint256 expires_at;\r\n        string client_id;\r\n        string email;\r\n        uint256 timestamp;\r\n    }\r\n\r\n    struct Token {\r\n        string id; // Key Id use client_id.email.\"token\" hash sha256 algorithm\r\n        string access_token;\r\n        string expires_at;\r\n        string client_id;\r\n        string email;\r\n        uint256 timestamp;\r\n    }\r\n\r\n    mapping(string => Users) users;\r\n    mapping(string => Clients) clients;\r\n    mapping(string => ClientsOfUser) clients_of_user;\r\n    mapping(string => Authorizations) authorization;\r\n    mapping(string => Token) token;\r\n\r\n    function getTimestamp() public view returns (uint256) {\r\n        return block.timestamp;\r\n    }\r\n\r\n    function createUser(\r\n        string memory _username,\r\n        string memory _email,\r\n        string memory _password,\r\n        string memory _firstname,\r\n        string memory _lastname,\r\n        string memory _birthdate,\r\n        string memory _phonenumber\r\n    ) public owner {\r\n        require(isUser(_username), \"Email is already !\");\r\n        users[_username].username = _username;\r\n        users[_username].email = _email;\r\n        users[_username].password = _password;\r\n        users[_username].firstname = _firstname;\r\n        users[_username].lastname = _lastname;\r\n        users[_username].birthdate = _birthdate;\r\n        users[_username].phonenumber = _phonenumber;\r\n        users[_username].timestamp = block.timestamp;\r\n    }\r\n\r\n    function getUser(string memory _username, string memory _password)\r\n        public\r\n        view\r\n        returns (Users memory)\r\n    {\r\n        require(\r\n            keccak256(abi.encodePacked(users[_username].username)) ==\r\n                keccak256(abi.encodePacked(_username)) &&\r\n                keccak256(abi.encodePacked(users[_username].password)) ==\r\n                keccak256(abi.encodePacked(_password)),\r\n            \"Email or password is incorrect !\"\r\n        );\r\n        return users[_username];\r\n    }\r\n\r\n    function isUser(string memory _username) private view returns (bool) {\r\n        if (bytes(users[_username].username).length == 0) {\r\n            return true;\r\n        } else {\r\n            return false;\r\n        }\r\n    }\r\n\r\n    function createClient(\r\n        string memory _client_id,\r\n        string memory _client_name,\r\n        string memory _client_secret_key,\r\n        string memory _client_logo,\r\n        string memory _client_description,\r\n        string memory _client_homepage,\r\n        string memory _redirect_uri,\r\n        string memory _email\r\n    ) public owner {\r\n        require(!isUser(_email), \"User not found !\");\r\n        require(isClient(_client_id), \"Client already !\");\r\n        clients[_client_id].id = _client_id;\r\n        clients[_client_id].client_owner = _email;\r\n        clients[_client_id].client_name = _client_name;\r\n        clients[_client_id].client_secret_key = _client_secret_key;\r\n        clients[_client_id].client_logo = _client_logo;\r\n        clients[_client_id].client_description = _client_description;\r\n        clients[_client_id].client_homepage = _client_homepage;\r\n        clients[_client_id].redirect_uri = _redirect_uri;\r\n        clients[_client_id].timestamp = block.timestamp;\r\n\r\n        clients_of_user[_email].client_id.push(_client_id); //Add List Client of User\r\n    }\r\n\r\n    function getClientById(string memory _client_id)\r\n        public\r\n        view\r\n        owner\r\n        returns (Clients memory)\r\n    {\r\n        require(!isClient(_client_id), \"Client not found !\");\r\n        return clients[_client_id];\r\n    }\r\n\r\n    function getClientsOfUser(string memory _email)\r\n        public\r\n        view\r\n        owner\r\n        returns (string[] memory)\r\n    {\r\n        require(!isClientsOfUser(_email), \"Clients of user not found !\");\r\n        return clients_of_user[_email].client_id;\r\n    }\r\n\r\n    function delClient(string memory _client_id) public owner {\r\n        require(!isClient(_client_id), \"Client not found !\");\r\n        string memory email = clients[_client_id].client_owner;\r\n        for (uint256 i = 0; i < clients_of_user[email].client_id.length; i++) {\r\n            if (\r\n                keccak256(\r\n                    abi.encodePacked(clients_of_user[email].client_id[i])\r\n                ) == keccak256(abi.encodePacked(_client_id))\r\n            ) {\r\n                clients_of_user[email].client_id[i] = clients_of_user[email]\r\n                    .client_id[clients_of_user[email].client_id.length - 1];\r\n            }\r\n        }\r\n        clients_of_user[email].client_id.pop();\r\n        delete clients[_client_id]; // del Client\r\n    }\r\n\r\n    function isClient(string memory _client_id) private view returns (bool) {\r\n        if (bytes(clients[_client_id].id).length == 0) {\r\n            return true;\r\n        } else {\r\n            return false;\r\n        }\r\n    }\r\n\r\n    function isClientsOfUser(string memory _email) private view returns (bool) {\r\n        if (clients_of_user[_email].client_id.length == 0) {\r\n            return true;\r\n        } else {\r\n            return false;\r\n        }\r\n    }\r\n\r\n    function grantAuthorization(string memory _client_id, string memory _email)\r\n        public\r\n        view\r\n        returns (string memory)\r\n    {}\r\n}\r\n",
  "sourcePath": "C:\\Users\\Kritsana Wipankhet\\Documents\\GitHub\\CE64-41\\smart-contract\\iam\\contracts\\iam.sol",
  "compiler": {
    "name": "solc",
    "version": "0.8.10+commit.fc410830.Emscripten.clang"
  },
  "schemaVersion": "3.4.3",
  "updatedAt": "2021-12-13T11:05:58.148Z",
  "networkType": "ethereum",
  "devdoc": {
    "kind": "dev",
    "methods": {},
    "version": 1
  },
  "userdoc": {
    "kind": "user",
    "methods": {},
    "version": 1
  }
}