{
  "contractName": "Werehouse",
  "abi": [
    {
      "inputs": [
        {
          "internalType": "string",
          "name": "_packageId",
          "type": "string"
        }
      ],
      "name": "createPackage",
      "outputs": [
        {
          "components": [
            {
              "internalType": "string",
              "name": "packageId",
              "type": "string"
            },
            {
              "internalType": "address",
              "name": "creator",
              "type": "address"
            },
            {
              "internalType": "uint256",
              "name": "timestamp",
              "type": "uint256"
            }
          ],
          "internalType": "struct Werehouse.Package",
          "name": "",
          "type": "tuple"
        }
      ],
      "stateMutability": "nonpayable",
      "type": "function"
    },
    {
      "inputs": [
        {
          "internalType": "string",
          "name": "_packageId",
          "type": "string"
        }
      ],
      "name": "getPackage",
      "outputs": [
        {
          "components": [
            {
              "internalType": "string",
              "name": "packageId",
              "type": "string"
            },
            {
              "internalType": "address",
              "name": "creator",
              "type": "address"
            },
            {
              "internalType": "uint256",
              "name": "timestamp",
              "type": "uint256"
            }
          ],
          "internalType": "struct Werehouse.Package",
          "name": "",
          "type": "tuple"
        }
      ],
      "stateMutability": "view",
      "type": "function",
      "constant": true
    }
  ],
  "bytecode": "0x608060405234801561001057600080fd5b50610866806100206000396000f3fe608060405234801561001057600080fd5b50600436106100365760003560e01c806387c604831461003b578063e4e1b28c1461006b575b600080fd5b610055600480360381019061005091906105df565b61009b565b604051610062919061075a565b60405180910390f35b610085600480360381019061008091906105df565b6101c5565b604051610092919061075a565b60405180910390f35b6100a36103ab565b6001826040516100b391906107b8565b90815260200160405180910390206040518060600160405290816000820180546100dc906107fe565b80601f0160208091040260200160405190810160405280929190818152602001828054610108906107fe565b80156101555780601f1061012a57610100808354040283529160200191610155565b820191906000526020600020905b81548152906001019060200180831161013857829003601f168201915b505050505081526020016001820160009054906101000a900473ffffffffffffffffffffffffffffffffffffffff1673ffffffffffffffffffffffffffffffffffffffff1673ffffffffffffffffffffffffffffffffffffffff1681526020016002820154815250509050919050565b6101cd6103ab565b816001836040516101de91906107b8565b908152602001604051809103902060000190805190602001906102029291906103e2565b503360018360405161021491906107b8565b908152602001604051809103902060010160006101000a81548173ffffffffffffffffffffffffffffffffffffffff021916908373ffffffffffffffffffffffffffffffffffffffff1602179055504260018360405161027491906107b8565b90815260200160405180910390206002018190555060018260405161029991906107b8565b90815260200160405180910390206040518060600160405290816000820180546102c2906107fe565b80601f01602080910402602001604051908101604052809291908181526020018280546102ee906107fe565b801561033b5780601f106103105761010080835404028352916020019161033b565b820191906000526020600020905b81548152906001019060200180831161031e57829003601f168201915b505050505081526020016001820160009054906101000a900473ffffffffffffffffffffffffffffffffffffffff1673ffffffffffffffffffffffffffffffffffffffff1673ffffffffffffffffffffffffffffffffffffffff1681526020016002820154815250509050919050565b604051806060016040528060608152602001600073ffffffffffffffffffffffffffffffffffffffff168152602001600081525090565b8280546103ee906107fe565b90600052602060002090601f0160209004810192826104105760008555610457565b82601f1061042957805160ff1916838001178555610457565b82800160010185558215610457579182015b8281111561045657825182559160200191906001019061043b565b5b5090506104649190610468565b5090565b5b80821115610481576000816000905550600101610469565b5090565b6000604051905090565b600080fd5b600080fd5b600080fd5b600080fd5b6000601f19601f8301169050919050565b7f4e487b7100000000000000000000000000000000000000000000000000000000600052604160045260246000fd5b6104ec826104a3565b810181811067ffffffffffffffff8211171561050b5761050a6104b4565b5b80604052505050565b600061051e610485565b905061052a82826104e3565b919050565b600067ffffffffffffffff82111561054a576105496104b4565b5b610553826104a3565b9050602081019050919050565b82818337600083830152505050565b600061058261057d8461052f565b610514565b90508281526020810184848401111561059e5761059d61049e565b5b6105a9848285610560565b509392505050565b600082601f8301126105c6576105c5610499565b5b81356105d684826020860161056f565b91505092915050565b6000602082840312156105f5576105f461048f565b5b600082013567ffffffffffffffff81111561061357610612610494565b5b61061f848285016105b1565b91505092915050565b600081519050919050565b600082825260208201905092915050565b60005b83811015610662578082015181840152602081019050610647565b83811115610671576000848401525b50505050565b600061068282610628565b61068c8185610633565b935061069c818560208601610644565b6106a5816104a3565b840191505092915050565b600073ffffffffffffffffffffffffffffffffffffffff82169050919050565b60006106db826106b0565b9050919050565b6106eb816106d0565b82525050565b6000819050919050565b610704816106f1565b82525050565b600060608301600083015184820360008601526107278282610677565b915050602083015161073c60208601826106e2565b50604083015161074f60408601826106fb565b508091505092915050565b60006020820190508181036000830152610774818461070a565b905092915050565b600081905092915050565b600061079282610628565b61079c818561077c565b93506107ac818560208601610644565b80840191505092915050565b60006107c48284610787565b915081905092915050565b7f4e487b7100000000000000000000000000000000000000000000000000000000600052602260045260246000fd5b6000600282049050600182168061081657607f821691505b6020821081141561082a576108296107cf565b5b5091905056fea26469706673582212201125b34509b35476adc6aebe4aa6a34986ea3929ddc5c689230303533624503364736f6c634300080b0033",
  "immutableReferences": {},
  "source": "// SPDX-License-Identifier: MIT\npragma solidity >=0.8.11 <0.9.0;\n\ncontract Werehouse {\n    //constructor() public {}\n    struct Package {\n        string packageId;\n        address creator;\n        uint256 timestamp;\n    }\n\n    struct Track {\n        bytes32 trackingId;\n        address updator;\n        uint256 timestamp;\n    }\n\n    mapping(bytes32 => Track) track;\n    mapping(string => Package) package;\n\n    function createPackage(string memory _packageId) public returns (Package memory) {\n        package[_packageId].packageId = _packageId;\n        package[_packageId].creator = msg.sender;\n        package[_packageId].timestamp = block.timestamp;\n        return package[_packageId];\n    }\n\n    function getPackage(string memory _packageId)\n        public view returns(Package memory ){\n        return package[_packageId];\n    }\n\n}\n",
  "sourcePath": "/Users/kritsanawipankhet/development/github/werehouse-smartcontract/contracts/Werehouse.sol",
  "compiler": {
    "name": "solc",
    "version": "0.8.11+commit.d7f03943.Emscripten.clang"
  },
  "schemaVersion": "3.4.4",
  "updatedAt": "2022-01-29T04:05:41.395Z",
  "networkType": "ethereum",
  "devdoc": {
    "kind": "dev",
    "methods": {},
    "version": 1
  },
  "userdoc": {
    "kind": "user",
    "methods": {},
    "version": 1
  }
}